:020000040800F2
:10000000E0BB002055020008DD1D0008E1130008D8
:10001000D91D000875080008B9400008000000005C
:100020000000000000000000000000009D0100082A
:100030008F09000800000000F10100080D270008EA
:100040006F0200086F0200086F0200086F020008CC
:100050006F0200086F020008AD0E0008310F0008A3
:10006000B50F00086F0200086F0200086F02000859
:100070006F0200086F0200086F0200086F0200089C
:100080006F0200086F0200086F0200086F0200088C
:100090006F0200086F0200086F0200086F0200087C
:1000A0006F0200086F0200086F0200086F0200086C
:1000B0006F0200086F0200086F0200086F0200085C
:1000C0006F0200086F0200086F0200086F0200084C
:1000D0006F020008C13B0008D13B0008E13B00086B
:1000E0006F0200086F0200086F0200086F0200082C
:1000F0006F0200086F0200086F0200086F0200081C
:100100006F0200086F020008F12800086F02000863
:10011000A13B0008B13B00086F0200086F02000815
:100120006F0200086F0200086F0200086F020008EB
:100130006F0200086F0200086F0200086F020008DB
:100140006F0200086F0200086F0200086F020008CB
:100150006F0200086F0200086F020008F53B0008FC
:100160006F0200086F0200086F0200086F020008AB
:100170006F0200086F0200086F0200086F0200089B
:100180006F0200086F020008DFF80CD000F0B8F82A
:1001900000480047314B0008E0BB00202A4B19689B
:1001A0000868B0E8F04F80F30988BFF36F8F4FF015
:1001B000000080F3118870470000000006480068C6
:1001C000006880F3088862B661B6BFF34F8FBFF353
:1001D0006F8F00DF00BF00BF08ED00E0DFF80C000C
:1001E000016841F470010160704700BF88ED00E0D4
:1001F000EFF30980BFF36F8F134B1A681EF0100FD7
:1002000008BF20ED108A20E9F04F106008B44FF0CD
:10021000100080F31188BFF34F8FBFF36F8F05F08D
:100220007FFA4FF0000080F3118808BC1968086855
:10023000B0E8F04F1EF0100F08BFB0EC108A80F34A
:100240000988BFF36F8F70477C010020EFF30580B2
:10025000704700000648804706480047FEE7FEE773
:10026000FEE7FEE7FEE7FEE7FEE7FEE7FEE7FEE766
:100270008928000889010008D2B201E000F8012BAA
:10028000491EFBD270470022F6E710B513460A4616
:1002900004461946FFF7F0FF204610BD2DE9F05F38
:1002A0000546002092469B468846064681464024E5
:1002B0001BE0284641464746224600F042F8534696
:1002C0005A46C01A914110D311461846224600F0F2
:1002D00029F82D1A67EB01084F462246012000211C
:1002E00000F020F817EB00094E41201EA4F1010494
:1002F000DFDC484631462A464346BDE8F09F000011
:10030000064C074D06E0E06840F0010394E8070062
:1003100098471034AC42F6D3FFF73AFFE864000880
:1003200008650008202A04DB203A00FA02F10020C8
:1003300070479140C2F1200320FA03F31943904023
:100340007047202A04DB203A21FA02F0002170478E
:1003500021FA02F3D040C2F120029140084319462D
:10036000704770B58C1810F8015B15F0070301D1C8
:1003700010F8013B2A1106D110F8012B03E010F808
:10038000016B01F8016B5B1EF9D12B0705D400232B
:10039000521E0DD401F8013BFAE710F8013BCB1ACD
:1003A000921C03E013F8015B01F8015B521EF9D5C2
:1003B000A142D8D3002070BD10B502F097F90F48C4
:1003C000006805F031F90E48006805F02DF90D4878
:1003D000006805F029F900F0D9F8C5200A4908702D
:1003E0000AA003F0A1FE642004F038F800F0DCFF5E
:1003F0004FF47A7004F032F810BD0000C400002001
:10040000B0000020B800002082000020D0D0CABB7D
:10041000BDE7C3E62ED5CFB0ADCEEF2E76616C3DF5
:100420003100000010B5C3200F49087000200F49AB
:1004300008700F4908700FA003F076FE642004F0E6
:100440000DF800F0B1FF4FF47A7004F007F80F4890
:10045000006805F061F80E48006805F05DF80D4889
:10046000006805F059F810BD820000200901002045
:10047000E0000020D0D0CABBBDE7C3E62ED5CFB088
:10048000ADCEEF2E76616C3D30000000B000002054
:10049000B8000020C400002010B5C320084908702F
:1004A0000020084908700848006805F035F807483A
:1004B000006805F031F80648006805F02DF810BD19
:1004C00082000020E0000020B0000020B8000020E2
:1004D000C400002010B502F009F90948006805F0D1
:1004E000A3F80848006805F09FF80748006805F081
:1004F0009BF8C6200549087003F000FE10BD0000FF
:10050000C4000020B0000020B800002082000020BD
:10051000F8B505460E4616A000680090002404E0D9
:100520001448005D14490855641C022CF8DB0024B3
:1005300005E01248015D104AA01C1154641C032CF4
:10054000F7DB28780C4948710D48007888710D4810
:100550000078C8710C48007808741122032004F058
:100560009AFA01226946032004F095FAF8BD0000CA
:100570000A00000071000020DC0100207300002050
:1005800082000020810000207600002010B54FF48A
:100590000041074800F0D2FE4FF40071054800F01A
:1005A000CDFE4FF48071034800F0CAFE10BD00007C
:1005B000000C0240000802401FB504F09DFD002021
:1005C000544A0123CDE901200093039003464FF4E0
:1005D000007251A1564805F011FB0020554A022334
:1005E000CDE901200093039003464FF4007252A11D
:1005F000564805F003FB0020554A0723CDE90120AA
:100600000093039003464FF4007252A1554805F041
:10061000F5FA0020544A0223CDE90120009303900B
:1006200003464FF4007251A1554805F0E7FA002047
:10063000544A0523CDE901200093039003464FF46B
:10064000007251A1544805F0D9FA0020534A0823FA
:10065000CDE901200093039003464FF4007250A1AE
:10066000524805F0CBFA0020514A0623CDE901207B
:100670000093039003464FF400724EA1534805F0D7
:10068000BDFA0020524A0623CDE9012000930390D1
:1006900003464FF400724FA1544805F0AFFA002012
:1006A000534A0523CDE901200093039003464FF4FC
:1006B000007250A1534805F0A1FA0020524A0423C9
:1006C000CDE901200093039003464FF400724FA13F
:1006D000524805F093FA0020514A0323CDE9012046
:1006E0000093039003464FF400724EA1544805F066
:1006F00085FA0020534A0323CDE90120009303909B
:1007000003464FF4007250A1564805F077FA04F002
:100710001DFD1FBDCC000020765461736B5F414707
:10072000565F546F5F4E6574776F726B0000000008
:10073000FD580008B0000020765461736B5F55329D
:100740005F4E617669676174696F6E00415A000897
:10075000B4000020765461736B5F55335F52464995
:10076000440000006D5A0008B80000207654617300
:100770006B5F55355F4E617669676174696F6E00B6
:10078000855A0008BC000020765461736B5F5536B3
:100790005F484D4900000000B15A0008C000002029
:1007A000765461736B436865636B0000A95200085F
:1007B000D0000020765461736B5F466F7277617270
:1007C000645F426172726965720000006D590008D1
:1007D000D4000020765461736B5F4261636B557087
:1007E0005F4261727269657200000000255900085D
:1007F000C8000020765461736B5F4D616E75616C4B
:1008000000000000DD590008C40000207654617328
:100810006B5F4147565F53746F700000AD5700081F
:10082000D8000020765461736B5F4C6566745F3945
:1008300030416E67656C5F436865636B0000000064
:10084000B5590008DC000020765461736B5F526973
:100850006768745F3930416E67656C5F43686563D4
:100860006B000000195A0008014648780A7840EAEF
:100870000220704700BFFEE770B502460C46FF2518
:10088000FF2309E012F8010B80EA05010648405CED
:1008900080EA03050548435C2000A4F10106B4B2D8
:1008A000F0D143EA052070BDE8620008E863000863
:1008B000014609B90B487047012901D10A48FAE7F6
:1008C000022901D10948F6E7032901D10848F2E7D6
:1008D000042901D10748EEE7052901D10648EAE7D6
:1008E0000020E8E718030020400B002068130020D8
:1008F000901B0020B8230020E02F002008B5252001
:100900008DF8000001208DF802008DF80300684684
:1009100001F066FA26208DF8000000208DF8020014
:1009200001208DF80300684601F05AFA27208DF85F
:10093000000002208DF8020001208DF803006846B7
:1009400001F04EFA34208DF8000003208DF80200EB
:1009500001208DF80300684601F042FA35208DF839
:10096000000004208DF8020001208DF80300684685
:1009700001F036FA47208DF8000005208DF80200BE
:1009800001208DF80300684601F02AFA08BD70477F
:1009900010B504E0F6480078401CF5490870F548A9
:1009A000F3490978405C0028F4D0F248F04909780E
:1009B000405CF1490870F149F148006803F07EFBA2
:1009C000D0B1ED48007801F0DDFA012806D0022808
:1009D0000AD0032805D004280CD108E000F012FC4E
:1009E00009E000F0A7FB06E000F0D8FB03E000F010
:1009F00073FB00E000BF00BF04E0DD480078401C4E
:100A0000DB490870DB48DA490978405C0028F4D0FB
:100A1000D848D7490978405CD7490870D548D449A7
:100A20000978405CC2286ED018DCB1286CD008DC94
:100A3000A0F1A100052868D2DFE800F05168809994
:100A4000AD00B42872D004DCB22870D0B3285CD1D9
:100A5000DDE0B5286CD0C128F9D114E1D32868D0E5
:100A60000CDCC5287AD004DCC32878D0C428EED1A9
:100A700045E1D12874D0D228E9D1AFE1D42870D093
:100A8000D5286FD0FA2802D0FB28E0D113E0BD4969
:100A9000BB48006803F012FB48B1B649B44A12786B
:100AA000885C01F033FCC220B749087002E00020E6
:100AB000B6490870E6E1B649B148006803F0FEFAAD
:100AC00048B1AC49AA4A1278885C01F01FFCC220E8
:100AD000AD49087002E00020AC490870D2E1AD4990
:100AE000A748006803F0EAFA48B1A249A04A127880
:100AF000885C01F00BFCC220A349087002E00020D2
:100B0000A2490870BEE1D2E059E0B7E1A2499C4891
:100B1000006803F0D3FA68B19649954A1278885C68
:100B200001F0F4FBC2209849087006E083E05AE027
:100B300095E067E1002095490870A3E19749904846
:100B4000006803F0BBFA70B18A49894A1278885C60
:100B500001F0DCFBC2208C49087007E0E3E0BAE05A
:100B6000F5E063E176E10020884908708AE18C496C
:100B70008348006803F0A2FA48B17E497C4A1278A3
:100B8000885C01F0C3FBC2207F49087002E00020AE
:100B90007E49087076E183497948006803F08EFA4F
:100BA00048B17449724A1278885C01F0AFFBC220E8
:100BB0007549087002E000207449087062E17A49C2
:100BC0006F48006803F07AFA48B16A49684A1278B7
:100BD000885C01F09BFBC2206B49087002E000209A
:100BE0006A4908704EE171496548006803F066FA89
:100BF00048B160495E4A1278885C01F087FBC220E8
:100C00006149087002E00020604908703AE16849D3
:100C10005B48006803F052FA48B15649544A1278CA
:100C2000885C01F073FBC2205749087002E0002085
:100C30005649087026E15F495148006803F03EFAC2
:100C400048B14C494A4A1278885C01F05FFBC220E7
:100C50004D49087002E000204C49087012E15649E5
:100C60004748006803F02AFA48B14249404A1278DE
:100C7000885C01F04BFBC2204349087002E0002071
:100C800042490870FEE04D493D48006803F016FAFD
:100C900048B13849364A1278885C01F037FBC220E7
:100CA0003949087002E0002038490870EAE04449F8
:100CB0003348006803F002FA48B12E492C4A1278F2
:100CC000885C01F023FBC2202F49087002E000205D
:100CD0002E490870D6E03B492948006803F0EEF938
:100CE00048B12449224A1278885C01F00FFBC220E7
:100CF0002549087002E0002024490870C2E032490A
:100D00001F48006803F0DAF948B11A49184A127806
:100D1000885C01F0FBFAC2201B49087002E0002049
:100D20001A490870AEE029491548006803F0C6F971
:100D300048B110490E4A1278885C01F0E7FAC220E7
:100D40001149087002E00020104908709AE020491B
:100D50000B48006803F0B2F948B10649044A12781A
:100D6000885C01F0D3FAC2200749087035E031E011
:100D7000FA000020470200208100002051000020DE
:100D8000F00000200000002082000020F60000207B
:100D90000300002006000020090000200C000020B5
:100DA0000F00002012000020150000201800002075
:100DB0001B0000201E000020210000202400002035
:100DC000270000202A0000202D00002030000020F5
:100DD0003300002000202C49087053E02B492C4898
:100DE000006803F06BF948B12A492B4A1278885CF5
:100DF00001F08CFAC2202949087002E00020224943
:100E000008703FE026492248006803F057F948B1CE
:100E10002049214A1278885C01F078FAC2201F49E3
:100E2000087002E00020184908702BE01D4918489E
:100E3000006803F043F948B11649174A1278885CF4
:100E400001F064FAC2201549087002E000200E4942
:100E5000087017E014490E48006803F02FF948B1F4
:100E60000C490D4A1278885C01F050FAC2200B49F7
:100E7000087002E000200449087003E000200249E5
:100E8000087000BF00BF10BDF60000203600002033
:100E9000F000002047020020FA000020820000201D
:100EA000390000203C0000203F0000201CB5142029
:100EB00003F0D4FA0020019001211A4800F035FA1D
:100EC000012813D101A800230122114600901648E1
:100ED000006804F0CDFF019800B34FF08050134933
:100EE0000860BFF34F8FBFF36F8F17E001210D48EC
:100EF00000F01BFA90B901A8002301220221009002
:100F00000948006804F0B4FF019838B14FF08050F0
:100F100006490860BFF34F8FBFF36F8F012000F0C9
:100F20008BF81CBD00100240C800002004ED00E05A
:100F30001CB5052003F092FA0020019002211A4806
:100F400000F0F3F9012813D101A800230122114672
:100F500000901648006804F08BFF019800B34FF032
:100F6000805013490860BFF34F8FBFF36F8F17E0B6
:100F700002210D4800F0D9F990B901A800230122FF
:100F8000022100900948006804F072FF019838B10E
:100F90004FF0805006490860BFF34F8FBFF36F8F4B
:100FA000022000F049F81CBD00100240D0000020D3
:100FB00004ED00E01CB5052003F050FA002001907C
:100FC00004211A4800F0B1F9012813D101A8002327
:100FD0000122114600901648006804F049FF01986C
:100FE00000B34FF0805013490860BFF34F8FBFF339
:100FF0006F8F17E004210D4800F097F990B901A810
:1010000000230122022100900948006804F030FF0B
:10101000019838B14FF0805006490860BFF34F8FF8
:10102000BFF36F8F042000F007F81CBD00100240D2
:10103000D400002004ED00E0014908607047000082
:10104000143C0140002123498279002A3AD00A4603
:10105000126803689A430B461A600A1D12680368F7
:101060009A430B1D1A60027911440A6803681A43F7
:101070000A60184A0832126803689A43154B08330D
:101080001A601A1D126803689A43124B0C331A60D7
:101090004279102A0ED11A1F126803681A430D4BA9
:1010A00008331A601A1D126803681A43094B0C337F
:1010B0001A600DE00749427911440A6803681A432F
:1010C0000A6005E0027911440A6803689A430A60DD
:1010D00070470000003C014010B501F007FB1148CB
:1010E000006804F0A1FA10480088012807D10F48D1
:1010F000006804F099FA012003F0B0FC0AE00A4805
:101100000088022806D10A48006804F08DFA0420FD
:1011100003F0A4FC4FF47A7004F03AF903F0E4FC15
:1011200010BD0000C400002020010020B0000020FD
:10113000B800002010B51448006804F075FA01F0FA
:10114000D5FA12480088012807D11148006804F038
:101150006BFA012003F082FC0AE00C4800880228A8
:1011600006D10C48006804F05FFA042003F076FC16
:101170004FF4FA6004F00CF900F0D0FB0648006868
:1011800004F0CAF910BD0000C400002020010020B6
:10119000B0000020B8000020D800002010B514488E
:1011A000006804F041FA01F0A1FA12480088012811
:1011B00007D11148006804F037FA012003F04EFC13
:1011C0000AE00C480088022806D10C48006804F0A8
:1011D0002BFA042003F042FC01F000F94FF47A707E
:1011E00004F0D6F80648006804F096F910BD000037
:1011F000C400002020010020B0000020B800002022
:10120000DC00002010B50F48006804F00DFA01F072
:101210006DFA0D480088012804D10C48006804F0DC
:1012200003FA07E008480088022803D1084800684C
:1012300004F0FAF94FF47A7004F0AAF803F066FCAF
:1012400010BD0000C400002020010020B0000020DC
:10125000B8000020F0B50A4600210023002400BF9A
:101260003DE0012505FA01F3156805EA03049C42F7
:1012700034D105684F000326BE40B543056015799B
:101280004E00B5400668354305601579012D02D042
:101290001579022D16D185684F000326BE40B5434F
:1012A000856055794E00B540866835438560456850
:1012B00001268E40B5434560456896798E40B6B2AA
:1012C00035434560C5684F000326BE40B543C56041
:1012D000D5794E00B540C6683543C560491C102914
:1012E000BFD3F0BDF0B5002300244D07ED0E02FA88
:1012F00005F3CE1000F1200555F826504E07F70EE5
:101300000F26BE40B543CF1000F1200646F8275007
:10131000CE1000F1200555F8265045EA0304CE1002
:1013200000F1200545F82640F0BD02460020136973
:101330000B400BB1012000E0002070474183704753
:101340000183704710B514480088012809D113485B
:1013500000884042124908801048008811490880DE
:101360000CE00D480088022808D10C4800880C4980
:1013700008800A48008840420A49088008480288D4
:101380000221012000F0EEFC0648028802210846F6
:1013900000F0E8FC10BD0000200100200C0100203E
:1013A0001C0100201E01002010B5642003F056F837
:1013B000FF210A4802F0F9FC322003F04FF8FF2128
:1013C000064802F0F2FC322003F048F8FF210348FF
:1013D00002F0EBFC322003F041F810BD0014014094
:1013E00009A100200BE00A5C124B9A8000BF114A51
:1013F000128802F04002002AF9D0421CD0B22A28FA
:10140000F1D300BFFEE700000D0A456E746572203F
:10141000486172644661756C745F48616E646C65A6
:10142000722C2053797374656D2048616C742E0D95
:101430000A0000000010014000B587B001210846F5
:1014400000F0F4FD0121102000F010FE0722092118
:10145000EC48FFF747FF07220A21EA48FFF742FF5F
:1014600000208DF81A0001208DF81B0002208DF855
:1014700018000002059002208DF8190005A9E14826
:10148000FFF7E8FE02208DF818004002059005A93C
:10149000DC48FFF7DFFE4FF4964001900020ADF8E6
:1014A0000800ADF80A00ADF80C00ADF810000C20F3
:1014B000ADF80E0001A9D44802F008FC012240F268
:1014C0002551D14802F0DDFB0121CF4802F0A3FBFA
:1014D0004021CD4802F096FB0121084600F0A6FD10
:1014E0000121480400F0B2FD07220221C548FFF7A0
:1014F000F9FE07220321C348FFF7F4FE00208DF810
:101500001A0001208DF81B0002208DF8180004201D
:10151000059002208DF8190005A9BA48FFF79AFE38
:1015200002208DF818000820059002208DF819007F
:1015300005A9B448FFF78EFE4FF4E130019000207A
:10154000ADF80800ADF80A00ADF80C00ADF81000D9
:101550000C20ADF80E0001A9AC4802F0B7FB012247
:1015600040F22551A94802F08CFB0121A74802F066
:1015700052FB4021A54802F045FB0121022000F06A
:1015800055FD0121880400F061FD07220A21A048D1
:10159000FFF7A8FE07220B219D48FFF7A3FE4FF49B
:1015A0008060059002208DF8180000208DF81A0048
:1015B00002208DF8190001208DF81B0005A9944820
:1015C000FFF748FE4FF40060059002208DF81800E8
:1015D00000208DF81A0002208DF8190001208DF8E6
:1015E0001B0005A98A48FFF735FE4FF416500190FD
:1015F0000020ADF80800ADF80A00ADF80C00ADF819
:1016000010000C20ADF80E0001A9824802F05EFB2C
:10161000012240F225517F4802F033FB01217D4831
:1016200002F0F9FA40217B4802F0ECFA0121042093
:1016300000F0FCFC0121C80400F008FD08220A218A
:101640007548FFF74FFE08220B217348FFF74AFE4B
:1016500000208DF81A0001208DF81B0002208DF863
:1016600018004002059002208DF8190005A96A486B
:10167000FFF7F0FD02208DF818008002059005A903
:101680006548FFF7E7FD4FF4614001900020ADF899
:101690000800ADF80A00ADF80C00ADF810000C2001
:1016A000ADF80E0001A95D4802F010FB012240F2E6
:1016B00025515A4802F0E5FA0121584802F0ABFAE8
:1016C0004021564802F09EFA01210C2000F0AEFCA9
:1016D0000121080500F0BAFC08220C214E48FFF752
:1016E00001FE082202214E48FFF7FCFD00208DF884
:1016F0001A0001208DF81B0002208DF81800C0028E
:10170000059002208DF8190005A94348FFF7A2FDB6
:1017100002208DF818000420059005A94048FFF725
:1017200099FD4FF4E13001900020ADF80800ADF8CC
:101730000A00ADF80C00ADF810000C20ADF80E005A
:1017400001A9384802F0C2FA012240F22551354879
:1017500002F097FA0121334802F05DFA4021314846
:1017600002F050FA0121042000F060FC0121202049
:1017700000F07CFC082206212748FFF7B3FD082271
:1017800007212548FFF7AEFD00208DF81A00012043
:101790008DF81B0002208DF81800402005900220D3
:1017A0008DF8190005A91C48FFF754FD02208DF89B
:1017B00018008020059005A91748FFF74BFD4FF44E
:1017C000165001900020ADF80800ADF80A00ADF801
:1017D0000C00ADF810000C20ADF80E0001A9124865
:1017E00002F074FA012240F225510F4802F049FA42
:1017F00001210D4802F00FFA40210B4802F002FAD5
:1018000007B000BD0000024000100140004400404D
:10181000000402400048004000080240004C004024
:10182000000C0240005000400014014004480069D0
:1018300000F0010008B9012070470020FCE700001B
:101840000010024010B5FFF7F1FF20B100F006F8DC
:1018500008B1012010BD0020FCE700000448006929
:1018600000F0020008B9012070470020FCE70000EA
:10187000001002400448006900F0040008B901208B
:1018800070470020FCE70000001002400448006997
:1018900000F0080008B9012070470020FCE70000B4
:1018A000001002400448006900F0100008B901204F
:1018B00070470020FCE70000001002400448006967
:1018C00000F0200008B9012070470020FCE700006C
:1018D000001002400448006900F0400008B90120EF
:1018E00070470020FCE70000001002400448006838
:1018F00000F4005008B9012070470020FCE7000008
:101900001008024010B5FFF791FF20B1FFF7A6FFC6
:1019100008B1012010BD0020FCE7000010B5084808
:101920000088404282B20221012000F01BFA0448E4
:101930000088404282B20221084600F013FA10BD2E
:101940001001002010B51548C078042817D006DC17
:1019500001280BD002280CD003281CD10CE005284C
:1019600010D0062811D0102815D111E000F07CF815
:1019700012E000F0ADF80FE000F0D8F80CE000F055
:10198000F3F809E000F012F906E000F01FF903E0B7
:1019900000F028F900E000BF00BF10BD08380020AB
:1019A00010B52148007800B910BD00201E4908700C
:1019B0001E4890F84200042803DA1DA002F0B4FB90
:1019C000F2E71A48807819490988884203D01DA097
:1019D00002F0AAFBE8E7154890F84200801E81B2A9
:1019E0001248801CFEF748FF0446E2B20F4890F808
:1019F0004200401E0D49891C085C824207D1881EA6
:101A000090F84200801E085CB0EB242F03D013A096
:101A100002F08AFBC8E7FFF795FF0020034981F831
:101A2000420000BFC0E70000340100200838002059
:101A30000A0DBDD3CADCD7D6BDDAC9D9D3DA340A88
:101A40000D0000000A0DB4D3BBFAB7B5BBD8B5D8AA
:101A5000D6B7B2BBB6D40A0D000000000A0D43523F
:101A600043B4EDCEF30A0D0070B5174890F842006C
:101A7000002828DD14480579B0F8C800A0F201104C
:101A800000BB082D1DD1104C641D2046FEF7ECFE56
:101A90000E498881A41C2046FEF7E6FE0B49C8814A
:101AA000A41C2046FEF7E0FE08490882A41C20463C
:101AB000FEF7DAFE05494882A41C0120024981F89C
:101AC000D10000BF00BF70BD08380020E038002002
:101AD00070B5144890F84200002822DD11480579BD
:101AE000B0F8CA00A0F20120D0B9062D17D10D4CD4
:101AF000641D2046FEF7B8FE0B498880A41C2046D2
:101B0000FEF7B2FE0849C880A41C2046FEF7ACFED2
:101B100005490881A41C0120024981F8D20000BFB8
:101B200000BF70BD08380020E038002010B50C4818
:101B300090F84200002811DD094C641D2046FEF794
:101B400093FE08490880A41C2046FEF78DFE054937
:101B50004880A41C0120024981F8D30010BD000078
:101B600008380020E038002070B50E4890F8420098
:101B7000002816DD0B480479B0F8CE00A0F2012051
:101B800070B9022C0BD1074D6D1D2846FEF76CFE77
:101B900005494881AD1C0120E91F81F8D40000BF30
:101BA00000BF70BD08380020E0380020064890F8DB
:101BB0004200002806DD04488078012802D102494D
:101BC00081F8D5007047000008380020044890F8DC
:101BD0004200002803DD0120014981F8D60070474A
:101BE00008380020044890F84200002803DD012056
:101BF000014981F8D70070470838002070B50446C5
:101C000000200D49087040F63D650C4A2946032026
:101C100002F062FE0A4890F8420040280ADA0848BA
:101C200090F8421090F84200401C054A82F84200A9
:101C3000901C445470BD000034010020451C000875
:101C40000838002001200149087070473401002045
:101C500070B506460C4615460020284981F8C60096
:101C6000084690F8C61090F8C600401C234A82F837
:101C7000C60002F1460046540621463890F8C620B8
:101C800090F8C600401C1D4B83F8C60003F14600C7
:101C900081542112463890F8C62090F8C600401CA6
:101CA00083F8C60003F146008154463890F8C620F8
:101CB00090F8C600401C83F8C60003F14600845427
:101CC0002912463890F8C62090F8C600401C83F8C8
:101CD000C60003F146008154463890F8C62090F8BB
:101CE000C600401C83F8C60003F14600855400F08E
:101CF00007F80020014981F8D60070BD083800209F
:101D000010B5134890F8C6104630FEF7B5FD0446EE
:101D100021120F4890F8C62090F8C600401C0C4BCA
:101D200083F8C60003F146008154463890F8C62077
:101D300090F8C600401C83F8C60003F146008454A6
:101D4000463890F8C610463000F004F810BD000088
:101D50000838002070B504460D462946204600F09C
:101D60002BFB70BD2DE9F04104460F469046194803
:101D70000480002621E0E0B242463946FFF768FFC2
:101D800002F08EFB05460EE002F096FB284602F0BC
:101D90004BFBB0F5FA7F00DD06E00E4890F8D60068
:101DA000002800DD00E0EFE700BF0A4890F8D60009
:101DB000002800DD03E0701CC6B2022EDBDB00BF92
:101DC000044890F8D60010B90020BDE8F081012049
:101DD000FBE700000838002000BFFEE77047000066
:101DE00070B5002100230F22C4781CB3174C24685F
:101DF00004F4E064C4F5E064C4F30721C1F1040411
:101E0000E3B20A4144789C40E1B284781440214313
:101E10000C07210E0E4C05786155047804F01F055F
:101E20000124AC4005786D11AD0005F1E025C5F841
:101E3000004109E0047804F01F050124AC40054D81
:101E40000678761145F8264070BD00000CED00E0E4
:101E500000E400E080E100E002490143024A116031
:101E6000704700000000FA050CED00E00EB50121FE
:101E7000880300F0FBF80021042000F0D9FA0120CB
:101E8000009000208DF8040010208DF8050001203E
:101E90008DF806006846FFF7D5F84FF44070FFF75D
:101EA000DBFF06208DF8080005208DF80A000120D0
:101EB0008DF80B0002A8FFF793FF0EBD1CB50121A2
:101EC000880300F0D3F80121042000F0B1FA0220C9
:101ED000009000208DF8040010208DF805000120EE
:101EE0008DF806006846FFF7ADF81CBD38B504460E
:101EF0004FF44070FFF7B0FF07208DF80000052079
:101F00008DF80200012C03D101208DF8030003E0BD
:101F100014B900208DF803006846FFF761FF38BD53
:101F20001CB50121880300F0A1F80221042000F073
:101F30007FFA0420009000208DF8040010208DF816
:101F4000050001208DF806006846FFF77BF81CBDF0
:101F500038B504464FF44070FFF77EFF08208DF837
:101F6000000005208DF80200012C03D101208DF81E
:101F7000030003E014B900208DF803006846FFF762
:101F80002FFF38BD10B502460023002033B1012BCE
:101F900014D0022B22D0032B3FD12FE0002109E0E7
:101FA0001E4C645C944201D0012302E00120002316
:101FB00002E0491C0A29F3DB00BF00BF002109E051
:101FC000174C645C944201D0022302E003200023FA
:101FD00002E0491C0A29F3DB00BF00BF002109E031
:101FE000104C645C944201D0002302E002200023E4
:101FF00002E0491C0A29F3DB00BF00BF002109E011
:10200000094C645C944201D0002302E004200023C8
:1020100002E0491C0A29F3DB00BF10BD8500002047
:102020008F00002099000020A300002029B1064A5B
:1020300012680243044B1A6004E0034A12688243A8
:10204000014B1A60704700003038024029B1064A3F
:1020500012680243044B1A6004E0034A1268824388
:10206000014B1A60704700004038024029B1064A0F
:1020700012680243044B1A6004E0034A1268824368
:10208000014B1A607047000044380240F0B500214F
:1020900000220024022500260223324F3F6807F069
:1020A0000C0121B1042905D0082937D105E02E4FB4
:1020B000076036E02D4F076033E02A4F3F1F3F682F
:1020C000C7F38056274F3F1F3F6807F03F036EB1AD
:1020D000264FB7FBF3F7DFF88CC0ACF1040CDCF84B
:1020E00000C0CCF3881C07FB0CF40CE01E4FB7FBC0
:1020F000F3F7DFF870C0ACF1040CDCF800C0CCF3EF
:10210000881C07FB0CF4174F3F1F3F68C7F30147BC
:102110007F1C7D00B4FBF5F7076002E0124F0760FB
:1021200000BF00BF0F4F3F6807F0F0010909104FD3
:102130007A5C0768D74047600A4F3F6807F4E05170
:10214000890A0B4F7A5C4768D7408760054F3F6824
:1021500007F46041490B064F7A5C4768D740C76077
:10216000F0BD0000083802400024F40000127A009C
:1021700055010020F0B585B049A103C9CDE903019F
:1021800049A103C9CDE9010100260024012700254A
:1021900009E003A8415D464801F007FE0A2002F06D
:1021A0005DF9681CC5B2082DF3DB4FF4FA7002F03C
:1021B00055F961E05FB13FA001F0B6FF4FF49670B2
:1021C00002F04CF9FFF7F0F8642002F047F900271D
:1021D0006946022002F050FC00284DD0082C49D25C
:1021E000DFE804F0040C141C242C343C01A8005D2E
:1021F0009DF80010884200D101243CE001A8005D58
:102200009DF80010884200D1022434E001A8005D4E
:102210009DF80010884200D103242CE001A8005D45
:102220009DF80010884200D1042424E001A8005D3C
:102230009DF80010884200D105241CE001A8005D33
:102240009DF80010884200D1062414E001A8005D2A
:102250009DF80010884200D107240CE001A8005D21
:102260009DF80010884202D10024012601E00024DC
:10227000002600E000BF00BF012E9BD1642002F0C9
:10228000EDF817A001F050FF4FF4967002F0E6F859
:10229000FFF78AF84FF47A7002F0E0F805B0F0BD6D
:1022A0000308C120030100170308C1200000001526
:1022B00000480040B5F7CAD4B4B0BFDA2ECFD4CAB4
:1022C000BEC7F82E7478743D2252464944B6C1BF49
:1022D000A8C6F7B3F5CABCBBAFD6D0220000000039
:1022E000B5F7CAD4B4B0BFDA2ECFD4CABEC7F82E61
:1022F0007478743D2252464944B6C1BFA8C6F7B3AC
:10230000F5CABCBBAFB3C9B9A622000010B50446DC
:1023100000F0ECF901200D4908700D4908700D48D6
:102320000078401C0B49087021460BA001F0FCFE10
:10233000642002F093F8FFF737F8642002F08EF87B
:102340000848006803F070F910BD0000F600002096
:10235000F7000020FA00002025582E76616C3D31F0
:1023600000000000B00000201CB501210846FFF766
:102370005DFE01208DF8040000208DF806008DF828
:10238000070003208DF805004FF4004000906946D7
:102390000148FEF75FFF1CBD0000024010B5044677
:1023A0002046FFF72BFC10BD4FF400400149088385
:1023B000704700000000024070B504460D462A46F2
:1023C0002146002002F067FB70BD00004FF4004082
:1023D00001494883704700000000024010B502F038
:1023E0008BFE0748028802210120FFF7BBFC04484E
:1023F000028802210846FFF7B5FC02F0A7FE10BDD7
:102400001001002010B54FF400410748FEF798FF77
:102410004FF400710548FEF791FF4FF480710348B7
:10242000FEF78CFF10BD0000000C024000080240C7
:1024300030B500228B071C0F0F2303FA04F20B4B5D
:102440008C1053F824309343084C8D1044F82530F9
:1024500023468C1053F824308C07240F00FA04F420
:102460002343024C8D1044F8253030BD083801401C
:1024700010B525A001F058FE642001F0EFFFFEF733
:1024800093FF4FF4FA7001F0E9FF0AE02AA001F08F
:102490004BFE642001F0E2FFFEF786FF642001F0AE
:1024A000DDFF012200211046FFF75CFC0128EDD181
:1024B0004FF4FA7001F0D2FF2BA001F035FE64203A
:1024C00001F0CCFFFEF770FF0AE034A001F02CFE13
:1024D000642001F0C3FFFEF767FF642001F0BEFF38
:1024E000012200210220FFF73DFC0128EDD137A099
:1024F00001F01AFE642001F0B1FFFEF755FF4FF422
:102500007A7001F0ABFF10BDB5F7CAD4B4B0BFDA32
:102510002ECFD4CABEC7F82E7478743D22CBC5B76F
:10252000FEB5E7BBFAC7FDB6AFC6F7B3F5CABCBB8D
:10253000AFD6D02200000000B5F7CAD4B4B0BFDADD
:102540002ECFD4CABEC7F82E7478743D22D7F3318B
:10255000BAC5CBC5B7FEB5E7BBFA4D6F64627573FC
:10256000CAB9C4DCD6D02200B5F7CAD4B4B0BFDA39
:102570002ECFD4CABEC7F82E7478743D22D7F3315B
:10258000BAC5CBC5B7FEB5E7BBFA4D6F64627573CC
:10259000CAB9C4DCB3C9B9A622000000B5F7CAD4D1
:1025A000B4B0BFDA2ECFD4CABEC7F82E7478743D4B
:1025B00022D3D232BAC5CBC5B7FEB5E7BBFA4D6F51
:1025C00064627573CAB9C4DCD6D02200B5F7CAD428
:1025D000B4B0BFDA2ECFD4CABEC7F82E7478743D1B
:1025E00022D3D232BAC5CBC5B7FEB5E7BBFA4D6F21
:1025F00064627573CAB9C4DCB3C9B9A6220000000D
:102600000CB50020019000903448006840F4803000
:102610003249086000BF3148006800F40030009083
:102620000198401C0190009818B90198B0F5A04F8E
:10263000F1D12A48006800F4003010B10120009068
:1026400001E0002000900098012846D12348403046
:10265000006840F0805021494031086020480068FF
:1026600040F440401E4908601C48083000681B497F
:10267000083108600846006840F4004008600846D9
:10268000006840F4A05008601648091F0860081F41
:10269000006840F08070091F086000BF0F480068A4
:1026A00000F000700028F9D040F205700E49086073
:1026B0000A480830006820F0030008490831086023
:1026C0000846006840F00200086000BF0348083078
:1026D000006800F00C000828F8D10CBD003802405A
:1026E0000070004008544007003C024010B5012033
:1026F0000549087000220221FFF734FB0022022165
:102700000846FFF72FFB10BDF800002010B500F0C1
:1027100019F800BF1020EFF3118180F31188BFF387
:102720004F8FBFF36F8F00BF03F044FC18B14FF021
:10273000805003490860002080F3118800BF10BD5D
:1027400004ED00E010B51B48006840B1194800686E
:10275000401E1849086010B901201749087000246C
:1027600008E004EB4401154A02EB810002F0A6F8F0
:10277000601CC4B2042CF4DB11480068401C1049F2
:102780000860084600686FF00041884202D10020CE
:102790000B49086002F091F80A480078401CC0B26A
:1027A000084908700A2803DB0020087002F084F84A
:1027B00010BD0000380100203C010020F43800204A
:1027C000400100205401002070B5002000220223A7
:1027D00000240221274D2D6805F00C0020B10428AB
:1027E00006D0082834D107E0234D244E356033E06D
:1027F000234D224E35602FE01E4D2D1F2D68C5F351
:1028000080541C4D2D1F2D6805F03F0154B11C4D07
:10281000B5FBF1F5174E361F3668C6F3881605FB73
:1028200006F209E0144DB5FBF1F5124E361F36687D
:10283000C6F3881605FB06F20E4D2D1F2D68C5F355
:1028400001456D1C6B00B2FBF3F50C4E356003E0E7
:10285000094D0A4E356000BF00BF064D2D68C5F317
:102860000315084E705D054D2D68C540034E35605B
:1028700070BD0000083802400024F4006801002008
:1028800000127A006C01002010B51548006840F471
:102890007000134908601348006840F001001149B6
:1028A000086000200F49083108600E4800680E4992
:1028B00008400C4908600D48091D0860081F0068A1
:1028C00020F48020091F0860002006490C310860B0
:1028D000FFF796FE4FF0006001498039086010BD97
:1028E00088ED00E000380240FFFFF6FE10300024C3
:1028F00010B50221214800F05DF858B102211F48AF
:1029000000F046F8002202211C4800F064F81C4840
:10291000006880470421194800F04CF858B10421A0
:10292000164800F035F800220421144800F053F84E
:102930001448006880470821104800F03BF858B15F
:1029400008210E4800F024F8002208210B4800F06E
:1029500042F80D48006880471021084800F02AF826
:1029600058B11021054800F013F800221021034847
:1029700000F031F805480068804710BD000C0040A9
:1029800044010020480100204C010020500100209B
:10299000CA430282704721B1028842F001020280DC
:1029A00004E002884FF6FE731A4002807047014629
:1029B000486A704730B50246002000230024158A7B
:1029C00005EA0103958905EA010413B10CB1012060
:1029D00000E0002030BD1AB183890B43838102E0FF
:1029E00083898B438381704741637047816370475C
:1029F000C16370470164704700220288184B9842F7
:102A00000ED0184B98420BD0B0F1804F08D0164B27
:102A1000984205D0154B984202D0154B984204D1EC
:102A20004FF68F731A404B881A43124B984207D0C7
:102A3000114B984204D04FF6FF431A400B891A43BA
:102A400002804B68C3620B880385054B984202D015
:102A5000044B984201D18B7A03860123838270470D
:102A60000000014000040140000400400008004054
:102A7000000C0040001000400014004010B5064853
:102A8000006802F049FD0548006802F045FD044871
:102A9000006802F041FD10BDB0000020B40000202D
:102AA000C400002070B5044600203F49087020781B
:102AB0003E490978884204D160783D4909788842C6
:102AC00070D0607800F0010040B13A48008800EB17
:102AD00040004FF6FF7101EA400534E0607800F0F5
:102AE0000200022805D13348008800EB800085B23F
:102AF00029E0607800F00400042806D12D48008801
:102B00004FF6FF7101EA80051DE0607800F00800D3
:102B1000082805D12748008800EB400085B212E064
:102B2000607800F01000102806D1224800884FF687
:102B3000FF7101EA400506E0607800F020002028DF
:102B400001D11C4805881C48008801280AD11B486F
:102B5000008840421A49088018480088401B1949DB
:102B600008800DE014480088022809D11348008825
:102B7000401B1349088011480088404211490880D1
:102B80000F48028802210120FFF7ECF80D48028867
:102B900002210846FFF7E6F82078044908706078BB
:102BA0000349087070BD0000FD0000200A010020EC
:102BB0000B0100200E010020200100200C0100204C
:102BC0001C0100201E01002070B5044600203F4972
:102BD000087020783E490978884204D160783D49E0
:102BE0000978884271D0207800F08000802808D1D0
:102BF0003948008800EB40004FF6FF7101EA4005BC
:102C000034E0207800F04000402805D132480088A8
:102C100000EB800085B229E0207800F02000202819
:102C200006D12D4800884FF6FF7101EA80051DE0AE
:102C3000207800F01000102805D12748008800EB0C
:102C4000400085B212E0207800F00800082806D184
:102C5000214800884FF6FF7101EA400506E0207820
:102C600000F00400042801D11B4805881B48008897
:102C700001280AD11A48008840422844194908808E
:102C800017480088184908800DE014480088022879
:102C900009D1134800881349088011480088404230
:102CA0002844114908800F48028802210120FFF7BB
:102CB00059F80D48028802210846FFF753F820789A
:102CC0000349087060780349087070BDFD0000205A
:102CD0000A0100200B0100200E010020200100202D
:102CE0000C0100201C0100201E0100202DE9F041F4
:102CF000044600250026277894F8018003E0781B1D
:102D0000401E07406D1C002FF9D105E0A8EB06001E
:102D1000401E00EA0808761CB8F1000FF6D1A81989
:102D2000072811DB33480078052860D000230122F2
:102D300010213148006803F019F805202D4908706A
:102D4000C3202E49087052E0207808B9012000E025
:102D50000020617809B9012100E00021084088B114
:102D600024480078012842D000230122114622483D
:102D7000006802F0FBFF01201E490870C4201F49B3
:102D8000087034E0207800F0FC0068B100230122D4
:102D900002211948006802F0E9FF04201549087073
:102DA000C3201649087022E0607800F03F0068B147
:102DB0000023012204211048006802F0D7FF0320FD
:102DC0000C490870C3200D49087010E009480078CC
:102DD00002280CD00023012208210748006802F0D5
:102DE000C5FF022003490870C32004490870BDE8EC
:102DF000F0810000E0000020C400002082000020DC
:102E0000F8B544A0006800904349012001F034FE69
:102E1000002850D04148007820B101280ED0022867
:102E200047D11EE03D4909781DF801003A4909786B
:102E3000884202D10120394908703BE037490978BE
:102E40001DF8010034490978884206D1022033492F
:102E5000087001203249087002E000202F490870F4
:102E600028E02D48007855281DD02B4800782D49A2
:102E70002D4A127888542C48007801280DD1002062
:102E80002649087028490870012028490870012740
:102E900024484478057846780AE023480078401CA6
:102EA0002149087004E000201C4908701E49087080
:102EB00000E000BF00BF012F2AD11D48007810B1EB
:102EC000012824D105E01DB916B901201849087060
:102ED0001DE0DCB1002016490870FFF707FC002751
:102EE0004FF47A7002F054FA012001F0B7FD00208F
:102EF000104908701048006802F00EFB0F48006887
:102F000002F00AFB0E48006802F08EFB00BF00BF13
:102F1000F8BD000055540000E2000020E30000204E
:102F200006010020ED010020E4000020FE0000204A
:102F300084000020E0000020C4000020B000002039
:102F4000DC00002010B513E000F006F9134800780B
:102F500058B913A001F0E8F84FF4967001F07EFA2A
:102F6000FEF722FA642001F079FA01200B4908707B
:102F7000184800780128E7D117A001F0D5F84FF4E0
:102F8000967001F06BFAFEF70FFA4FF47A7001F0C9
:102F900065FA00201D49087010BD000004010020E2
:102FA000B5F7CAD4B4B0BFDA2ECFD4CABEC7F82E94
:102FB0007478743D22B4AEBFDA3220B4C5B5BCBA61
:102FC000BDB4ABB8D0C6F7B3F5CABCBBAFD6D02240
:102FD0000000000006010020B5F7CAD4B4B0BFDA83
:102FE0002ECFD4CABEC7F82E7478743D22B4AEBFBB
:102FF000DA3220B4C5B5BCBABDB4ABB8D0C6F7B3ED
:10300000F5CABCBBAFB3C9B9A6220000E4000020DA
:10301000F8B545A0006800904449012001F02CFD5E
:10302000002851D04248007820B101280ED0022853
:1030300048D11EE03E4909781DF801003B49097856
:10304000884202D101203A4908703CE038490978A9
:103050001DF8010035490978884206D1022034491B
:10306000087001203349087002E0002030490870E0
:1030700029E02E4800783049304A127888542F4889
:103080000078022818D108460078497808442A496F
:10309000897888420AD101202949087001272648E9
:1030A000007800F00F062448047845780020204975
:1030B00008702249087004E020480078401C1F492D
:1030C000087000E000BF00BF012F2BD100271D4872
:1030D000007810B1012824D105E01CB915B90120F0
:1030E000184908701DE00F2E1AD1002015490870EC
:1030F000FFF7FCFA4FF47A7002F04AF9012001F070
:10310000ADFC0020104908701048006802F004FA75
:103110000F48006802F000FA0E48006802F084FAD6
:1031200000BF00BFF8BD000055540000E2000020C1
:10313000E300002006010020ED010020E400002053
:10314000FE00002084000020E0000020C4000020D9
:10315000B0000020DC00002008B52EA00068009020
:103160002D49012001F088FC002851D02B4800781F
:1031700020B101280ED0022848D11EE02749097845
:103180001DF8010024490978884202D10120234911
:1031900008703CE0214909781DF801001E490978B2
:1031A000884206D102201D49087001201C49087080
:1031B00002E000201949087029E0174800781949F1
:1031C000194A1278885418480078022818D10846FD
:1031D0000078497808441349897888420AD111480F
:1031E000FFF784FD00200D4908700F490870012089
:1031F0000E4908700020094908700B49087004E066
:1032000009480078401C0849087000E000BF00BF72
:1032100008BD000055540000E2000020E30000203B
:1032200006010020ED010020E4000020FE00002047
:103230000149086070470000F00000201CB543A160
:1032400003C9CDE900014349022001F015FC002823
:103250007AD041480078062874D2DFE800F00313E2
:10326000233343533C4909781DF801003949097853
:10327000884203D101203849087002E00020364915
:10328000087060E0344909781DF801003149097877
:10329000884203D102203049087002E000202E4904
:1032A000087050E02C4909781DF801002949097877
:1032B000884203D103202849087002E000202649F3
:1032C000087040E0244909781DF801002149097877
:1032D000884203D104202049087002E000201E49E2
:1032E000087030E01C4909781DF801001949097877
:1032F000884203D105201849087002E000201649D1
:10330000087020E0134800781449154A1278885450
:103310001348007802280FD10846FFF789FF0020E4
:103320000D4908700E49087001200E490870FDF71C
:103330002FFB06E008E005E009480078401C08493A
:10334000087000E000BF00BF1CBD00000416032091
:1033500000000000E5000020E6000020010200203F
:10336000E7000020FF0000202DE9F0410446002581
:103370000026277894F8018003E0781B401E074060
:103380006D1C002FF9D105E0A8EB0600401E00EAF5
:103390000808761CB8F1000FF6D1A819072811DB30
:1033A00037480078052868D00023012210213548CD
:1033B000006802F0DBFC052031490870C320324967
:1033C00008705AE0207808B9012000E000206178F8
:1033D00009B9012100E00021084088B1284800789F
:1033E00001284AD00023012211462648006802F035
:1033F000BDFC012022490870C420234908703CE02C
:10340000207800F0F80088B11D480078042834D0F6
:103410000023012202211B48006802F0A7FC0420BF
:1034200017490870C3201849087026E0607800F03A
:103430001F0088B11248007803281ED00023012203
:1034400004211048006802F091FC03200C49087028
:10345000C3200D49087010E00948007802280CD0FC
:103460000023012208210748006802F07FFC0220A7
:1034700003490870C32004490870BDE8F0810000CA
:10348000E0000020C4000020820000202DE9F84365
:103490004AA0006800904A49042001F0EDFA002893
:1034A00057D04848007820B101280ED002284ED1CC
:1034B0001EE0444909781DF8010041490978884215
:1034C00002D101203F49087042E03E4909781DF8C9
:1034D00001003B490978884206D102203949087029
:1034E00001203949087002E00020364908702FE0B9
:1034F00033480078552824D0314800783349344A7D
:103500001278885432480078012814D100202D49BF
:1035100008702F49087001202E49087080462E48F7
:10352000407800F0C0062C48007800F003072A48D5
:10353000047845780AE026480078401C2449087041
:1035400004E000201F4908702149087000E000BF16
:1035500000BFB8F1010F2ED14FF000081F480078CE
:1035600010B1012826D105E01CB915B901201B496D
:1035700008701FE0032F1CD1C02E1AD1002017495C
:103580000870FFF7B3F84FF47A7001F001FF0420E0
:1035900001F064FA0020124908701248006801F036
:1035A000BBFF1148006801F0B7FF1048006802F047
:1035B0003BF800BF00BFBDE8F88300005554000091
:1035C000E8000020E900002007010020150200208B
:1035D000EA00002000010020ED010020840000200E
:1035E000E0000020C4000020B8000020DC00002023
:1035F0002DE9F8434AA0006800904A49042001F0F0
:103600003BFA002857D04848007820B101280ED056
:1036100002284ED11EE0444909781DF801004149B5
:103620000978884202D101203F49087042E03E49B2
:1036300009781DF801003B490978884206D102202B
:103640003949087001203949087002E000203649E4
:1036500008702FE033480078552824D0314800788E
:103660003349344A1278885432480078012814D1FA
:1036700000202D4908702F49087001202E4908703C
:1036800080462E48407800F0C0062C48007800F0B4
:1036900003072A48047845780AE026480078401C49
:1036A0002449087004E000201F490870214908706F
:1036B00000E000BF00BFB8F1010F2ED14FF00008AD
:1036C0001F48007810B1012826D105E01CB915B9B2
:1036D00001201B4908701FE0032F1CD1C02E1AD1F6
:1036E000002017490870FFF701F84FF47A7001F0D5
:1036F0004FFE042001F0B2F9002012490870124870
:10370000006801F009FF1148006801F005FF10484A
:10371000006801F089FF00BF00BFBDE8F88300002A
:1037200055540000E8000020E900002007010020B7
:1037300015020020EA00002000010020ED01002019
:1037400084000020E0000020C4000020B800002019
:10375000DC00002008B52CA0006800902B49042054
:1037600001F08AF900284ED02948007820B10128BC
:103770000ED0022845D11EE0254909781DF8010028
:1037800022490978884202D101202149087039E094
:103790001F4909781DF801001C490978884206D1A3
:1037A00002201B49087001201A49087002E000201D
:1037B0001749087026E01548007855281BD0134893
:1037C00000781549154A1278885414480078012861
:1037D0000BD10846FFF7C8FD00200D4908700F49BE
:1037E000087001200E4908700AE00C480078401C5F
:1037F0000A49087004E0002005490870074908706C
:1038000000E000BF00BF08BD55540000E8000020E4
:10381000E90000200701002015020020EA00002036
:10382000000100202DE9F04104462078F1380728F6
:1038300035D2DFE800F00435668EF9B4C800F12017
:103840008349087083A000F06FFC4FF4967000F07D
:1038500005FEFDF7A9FD642000F000FE002505E04F
:10386000607881494855641C681CC5B21A2DF7DB85
:1038700000207E49087004E07C480078401C7B49A9
:103880000870794879490978405C0028F4D0764876
:1038900076490978405C76490870FFF7EFF8C3E095
:1038A000F2206B49087073A000F03EFC4FF4967054
:1038B00000F0D4FDFDF778FD642000F0CFFD002579
:1038C00005E0607868494855641C681CC5B21A2D2B
:1038D000F7DB00206549087004E064480078401C6C
:1038E00062490870604861490978405C0028F4D05A
:1038F0005D485E490978405C5D490870FFF7BEF895
:1039000092E00020604908704FF4967000F0A6FD28
:103910005EA000F009FC4FF4967000F09FFDFDF7EB
:1039200043FD642000F09AFD04E050480078401CFC
:103930004E4908704C484D490978405C0028F4D045
:1039400049484A490978405C49490870FFF796F8A8
:103950006AE000203E490870C120514908700020EB
:10396000434908704FF4967000F078FD4DA000F0C8
:10397000DBFB4FF4967000F071FDFDF715FD642040
:1039800000F06CFD002240F225514B4800F079F91F
:10399000002240F22551494800F073F944E000202C
:1039A0002B490870C1203E4908700020304908703A
:1039B000002605E0601C805D41498855701CC6B238
:1039C000032EF7DB30E0002021490870C120344984
:1039D000087000202649087094F80180A77808F143
:1039E000080007FA00F037490880E0783649088077
:1039F00020793649088033480088002803DD3148A3
:103A000000883349088030480088002803DD2E48AC
:103A10000088304908802D480088002803DD2B48A5
:103A200000882D49088000BF00BF012240F22551C7
:103A3000214800F026F9012240F225511F4800F0EC
:103A400020F900202549087025490870BDE8F0815B
:103A500070000020CAD5B5BDCAD6B6AFC4A3CABDD2
:103A60002E76616C3D31000047020020FA000020F4
:103A700081000020CAD5B5BDD7D4B6AFC4A3CABD96
:103A80002E76616C3D310000F6000020CDA3B3B569
:103A9000CAB1BCE4BDE1CAF82E76616C3D310000CC
:103AA00082000020BDF8C8EBB4FDBBFAC4A3CABDB8
:103AB0002E76616C3D310000004400400050004013
:103AC0007300002016010020180100201A010020B8
:103AD0000C0100200E01002010010020090100202F
:103AE000E000002008B529A00068009028490520C2
:103AF00000F0C2FF002848D02648007820B10128F5
:103B000014D002283FD121E0002022490870097812
:103B10001DF801001E490978884203D101201D4982
:103B2000087002E000201B4908702DE0194909784F
:103B30001DF8010016490978884203D10220154971
:103B4000087002E00020134908701DE0104800785A
:103B50001149124A127888541048007817280CD15D
:103B60000B480078FF2802D10846FFF75BFE0020D3
:103B7000084908700949087004E008480078401CAA
:103B80000649087000E000BF00BF08BD55540000A2
:103B9000EB000020EC00002029020020ED000020B6
:103BA00010B5024800F026F910BD0000901B00205F
:103BB00010B5024800F01EF910BD0000B823002027
:103BC00010B5024800F016F910BD000018030020DF
:103BD00010B5024800F00EF910BD0000400B0020A7
:103BE00010B5034800F006F9042000F03BFE10BDBC
:103BF0006813002010B5024800F0FCF810BD00006A
:103C0000E02F002001F40072B2F5007F00D100BF68
:103C1000CA430280704721B1828942F400528281F6
:103C200004E082894DF6FF731A408281704770B5B7
:103C30000246002400230025002040F66A16B14207
:103C400000D100BFC1F3421501F01F03012606FA9F
:103C500003F3012D02D19689334006E0022D02D1F3
:103C6000168A334001E0968A33400C12012606FA88
:103C700004F41688344013B10CB1012000E0002098
:103C800070BDF0B50346002400260025002040F654
:103C90006A17B94200D100BF1846C1F3421401F0BF
:103CA0001F06012707FA06F5012C01D10C3004E0AC
:103CB000022C01D1103000E014301AB107682F43F4
:103CC000076002E00768AF430760F0BD2DE9FF47DA
:103CD00005460E460024A14600BFA046B08900B1AB
:103CE00000BF2C8A24F44054F08804432C82AC8911
:103CF00041F20C608443B0883189084371890843DC
:103D00000443AC81AC8A24F44074B0890443AC828F
:103D10006846FEF7BBF92048854202D01F4885421D
:103D200002D1DDF80C9001E0DDF80890A88900F4DC
:103D3000004040B109EBC90000EB091031684900AF
:103D4000B0FBF1F707E009EBC90000EB091031689F
:103D50008900B0FBF1F76420B7FBF0F00401200903
:103D6000642101FB1078A88900F4004040B13220A2
:103D700000EBC800B0FBF1F000F00700044308E0DE
:103D8000322000EB08106421B0FBF1F000F00F00CE
:103D900004432C81BDE8FF8700100140001401405E
:103DA00001468888C0F308007047C1F3080282808A
:103DB000704770B504460D4601F09EF9668B01F020
:103DC000C5F90EB9002070BD218BA068405C287039
:103DD00001F092F9208B401C80B22083E189884257
:103DE00001DB00202083608B401E608301F0AEF970
:103DF0000120E8E770B5044640F225512068FFF73E
:103E000016FFE0B12068FFF7CBFFC5B2E18AA068DA
:103E10004554E08A401C80B2E082E189884201DB9F
:103E20000020E082608BE189884202DA608B401CCE
:103E30006083606A10B12846616A884700BF40F21B
:103E400027712068FFF7F3FE08B3A08A60B900224B
:103E500040F227712068FFF714FF012240F226612B
:103E60002068FFF70EFF37E0638A6268D15C206844
:103E7000FFF79BFF608A401C80B26082A189884264
:103E800001DB00206082A08A401EA08224E040F274
:103E900026612068FFF7CBFEF0B1A08A50B900225E
:103EA00040F226612068FFF7ECFE206AA0B1206A8C
:103EB000804711E0638A6268D15C2068FFF775FF74
:103EC000608A401C80B26082A189884201DB0020A8
:103ED0006082A08A401EA08270BDF8B504460E46DE
:103EE0001746002525E00CE001F006F9A08A0090B5
:103EF00001F02CF9A089BDF80010884200DD01E036
:103F000000BFF1E700BF705D228A6168885401F04C
:103F1000F3F8208A401C80B22082A189884201DB0C
:103F200000202082A08A401CA08201F00FF9681CAA
:103F300085B2BD42D7DB012240F227712068FFF72E
:103F4000A0FEF8BD414842490860424848604248E6
:103F500088604FF480608881C88100200882488290
:103F6000C8820883488388823C48C8613C4808620C
:103F70003C4848623C483D4908603D4848603D48EF
:103F8000886001208881C002C881002008824882A0
:103F9000C882088348838882C861086248623648BC
:103FA0003649086036484860364888604FF480607B
:103FB0008881C881002008824882C882088348839B
:103FC0008882C861086248622F48304908603048DA
:103FD0004860304888604FF480608881C881002044
:103FE00008824882C882088348838882C861086240
:103FF000486229482949086029484860294888605A
:104000004FF4806088814000C88100200882488287
:10401000C882088348838882C8610862486222484F
:104020002249086022484860224888604FF4806036
:104030008881C881002008824882C882088348831A
:104040008882C86108624862704700000010014021
:10405000180300204003002040070020A923000887
:10406000CD2300089D23000800440040400B0020A1
:1040700028010020680B0020004800406813002041
:104080009013002090170020004C0040901B00204F
:10409000B81B0020B81F002000500040B8230020AB
:1040A000E0230020E027002000140140E02F002042
:1040B000083000200834002000BFFEE770B5044639
:1040C0000D4600260DE020782978884203D0002094
:1040D0000949087007E0641C6D1C0120064908703E
:1040E000761C032EEFDB00BF0348007808B100F018
:1040F00005F80148007870BDE100002010B54FF4CC
:1041000000410748FDF71AF94FF400710548FDF723
:1041100017F94FF480710348FDF710F910BD000046
:10412000000C0240000802400FB4054B10B503A973
:10413000044A029800F018F810BC5DF814FB000067
:10414000D54A0008D801002002E008C8121F08C1A3
:10415000002AFAD170477047002001E001C1121F08
:10416000002AFBD1704700002DE9FF4F8DB09B4620
:104170000F460446002606E025280BD05A460F9924
:104180009047641C761C20780028F5D111B0304689
:10419000BDE8F08F0025A8460122984900E00543BC
:1041A00014F8013F203B02FA03F00842F7D12078CF
:1041B0002E2817D114F8010F45F004052A280ED037
:1041C0006FF02F022078A0F1300109290AD808EBFE
:1041D000880102EB410100EB0108641CF2E757F88B
:1041E000048B641C20786C280DD004DC4C2812D081
:1041F0006A2811D104E074280DD07A280CD10AE085
:1042000045F4001507E0617845F48015814202D13C
:10421000641C05F58015641C2278692A45D008DCE9
:10422000002AB3D0582A69D0632A10D0642A08D152
:104230003BE0702A67D0732A13D0752A5CD0782AA5
:104240005CD010465A460F999047761CD3E017F879
:10425000040B8DF8000000208DF80100E9460120D4
:1042600003E057F8049B4FF0FF3069074FF000055B
:1042700001D40AE06D1C45450DDA8542FADB19F8D8
:1042800005100029F6D106E06D1C8542FCDB19F80B
:1042900005100029F8D12E4404E019F8010B5A4604
:1042A0000F9990476D1EF8D2A5E00A200021CDE9B4
:1042B0000801C5F3025002280DD001CFC117031E1B
:1042C00071F100030DDA4FF0000CD0EB0C006CEB39
:1042D00001012D2308E0FF1D27F00707F7E8020181
:1042E000EDE72B0504D52B238DF8283001233BE087
:1042F000EB0739D02023F7E70A2000E01020002147
:10430000CDE9080107E01020002145F00405CDE9C2
:1043100008014FF00808C5F3025002280FD001CF62
:1043200000214FF0000A2B071FD5702A0DD0DDE9C0
:1043300008C38CF0100C5CEA030C0CD015E0FF1DD8
:1043400027F00707F7E80201EBE740228DF8282065
:104350004FF0010A0BE050EA010306D030238DF83C
:1043600028308DF8292002239A46582A04D024A206
:104370000DF120090B9209E026A2F9E7DDE90823F7
:10438000FBF78CFF0B9B9B5C09F8013D50EA010297
:10439000F4D1ADEB090020300890680701D44FF04C
:1043A00001080899884502DDA8EB010000E0002023
:1043B0008046002506E00AA85A46405D0F999047BE
:1043C0006D1C761C5545F6DB04E030205A460F99EB
:1043D0009047761CB8F10001A8F10108F5DC05E072
:1043E00019F8010B5A460F999047761C0899481EF8
:1043F00008900029F4DC641CC5E6000009280100CF
:10440000303132333435363738396162636465664A
:10441000000000003031323334353637383941420C
:10442000434445460000000070B5044600F064FEB9
:104430000848056800F08AFE15B907A0FFF774FE6A
:10444000A54201DB2E1B03E06FF00040001B461964
:10445000304670BD40010020300D0A0010B5044602
:104460004FF47A7104FB01F000F002F810BD000077
:1044700030B5084C63680021074C2468074DB4FB35
:10448000F5F404FB00F202E0024C6468E11A914288
:10449000FAD330BD001000E06801002040420F0058
:1044A00010B500F029FE0348046800F04FFE2046D6
:1044B00010BD00004001002010B5FDF771FA10BDDD
:1044C00010B54FF44070FDF7C7FCFEF77DF900F022
:1044D0004FF900F009F800F063FA00F097F900F0E6
:1044E0004BF800F005F910BD0748006840F08070F7
:1044F000054908600020054948600846006840F00A
:104500000100086070470000FCED00E0001000E0D2
:104510007FB501210820FDF799FD14480068460881
:104520001348B6FBF0F085B24FF0FF340294ADF8BB
:1045300004500020ADF80C00ADF8060001A90D48AC
:10454000FEF75AFA01210B48FEF725FA32208DF8C2
:10455000000004208DF8010000208DF802000120E9
:104560008DF803006846FDF73BFC7FBD6801002025
:1045700040420F00000C004010B500F04FF800F072
:1045800007F8FDF773FCFDF799FCFDF7C9FC10BDBA
:104590001CB501211420FDF749FD00208DF8040011
:1045A0008DF806008DF8070002208DF80500012027
:1045B000009069461748FCF74DFE022000906946BE
:1045C0001448FCF747FE0420009069461148FCF7A8
:1045D00041FE0820009069460E48FCF73BFE102083
:1045E000009069460B48FCF735FE20200090694694
:1045F0000848FCF72FFE4020009069460548FCF76C
:1046000029FE4FF40050009069460348FCF722FE53
:104610001CBD000000100240000802400021284A92
:104620009172D1721173002018E06421254A02EBC7
:10463000001211810221234A02EB001211710021A4
:10464000204A02EB001291721E4A02EB0012D17254
:104650001C4A02EB00121173411CC8B20A28E4DBA9
:10466000642218490A87052281F83B206422A1F8B8
:104670004820052281F84B206422A1F85820052209
:1046800081F85B206422A1F86820052281F86B2064
:104690000D490C4A11600D4911610D4911620D4916
:1046A00011630D4911640D4911650D4911660D49DC
:1046B00011670D49C2F880100C49C2F8901070477C
:1046C00008030020680200202D1800085D1800086B
:1046D000751800088D180008A5180008BD180008F6
:1046E000D5180008ED18000805190008451800083D
:1046F0001CB5012140F22110FDF798FC012000F0CB
:104700008FF8022000F08CF8032000F089F80420D4
:1047100000F086F801208DF8040000208DF80600D6
:104720008DF8070003208DF805004FF4806000909D
:1047300069460C48FCF78EFD8020009069460A48C7
:10474000FCF788FD4FF48070009069460648FCF73E
:1047500081FD4FF48070009069460448FCF77AFDB3
:104760001CBD000000200240001402400000024076
:1047700070B5002416E0002004EB44011F4A02EB50
:104780008101486004EB440102EB8101886004EB85
:10479000440102EB8101487004EB440102F821005E
:1047A000601CC4B2042CE6DB154800684FF47A7232
:1047B000B0FBF2F1481EB0F1807F00D31BE0481E31
:1047C0004FF0E022506150170F22002807DA13073C
:1047D0001E0E0C4B00F00F052D1F5E5503E0130756
:1047E0001D0E094B1D5400BF00204FF0E0229061C8
:1047F0000720106100BFFFF78BFE70BDF43800206A
:104800006801002018ED00E000E400E010B5FFF7BB
:1048100099FBFCF711FEFDF7A7FDFCF76FF810BD43
:10482000411EC8B220B94FF480610B4A118311E0D8
:10483000012803D18021094A11800BE0022803D10D
:10484000C101064A118005E0032803D14FF48071AD
:10485000034A1183704700000020024018140240F0
:1048600000000240012806D11049496981F48061A5
:104870000E4A516119E0022806D10D49096881F0FC
:1048800080010B4A116010E0032806D1084909682D
:1048900081F48071064A116007E0042805D10549BA
:1048A000496981F48071034A5161704700200240D8
:1048B000141402400000024070477047416851B133
:1048C0004168491E416031B90121417001780129D7
:1048D00001D18168416070472DE9F04104460E46E0
:1048E0001546052E00D3761F2848FEF760F80746C8
:1048F00007EB0608012C0FD12548056041462348E7
:10490000FEF772F802212148FEF742F80122022147
:104910001E48FEF760F837E0022C0FD11D480560F5
:1049200041461A48FEF762F804211848FEF730F8AD
:10493000012204211548FEF74EF825E0032C0FD183
:104940001548056041461148FEF752F808210F4806
:10495000FEF71EF8012208210C48FEF73CF813E090
:10496000042C0FD10D48056041460848FEF742F877
:1049700010210648FEF70CF8012210210348FEF72B
:104980002AF801E0BDE8F08100BFFBE7000C004021
:1049900044010020480100204C010020500100206B
:1049A0001CB501210420FDF741FB01210820FDF782
:1049B0003DFB4FF40070009001208DF804000020B2
:1049C0008DF8060002208DF8050069462148FCF7A5
:1049D00041FC4FF48070009001208DF8040000200D
:1049E0008DF8060002208DF8050069461948FCF78D
:1049F00031FC4FF40040009001208DF804000020AD
:104A00008DF8060002208DF8050069461248FCF773
:104A100021FC4FF48040009001208DF8040000201C
:104A20008DF8060002208DF8050069460A48FCF75B
:104A300011FC4FF44050009001208DF8040000203C
:104A40008DF8060002208DF8050069460248FCF743
:104A500001FC1CBD00080240000C024000B50346EA
:104A60001846FBF725FF024602B900BD0020D082A0
:104A70001083508300BFF8E770B505460E46284600
:104A8000FBF716FF04460CB9002070BD31462046E6
:104A9000FFF78FF9F9E72DE9F04105460E46174675
:104AA0002846FBF705FF04460CB9BDE8F081E06934
:104AB00008B1E06980473A4631462046FFF70DFAD3
:104AC00000BFF2E713B50446012201A92046FFF713
:104AD000E2FF1CBD70B504460D46E1B20520FFF7AC
:104AE000F1FF204670BD000010B507480288022182
:104AF0000120FDF737F904480088404282B20221C4
:104B00000846FDF72FF910BD1401002010B5074825
:104B10000088404282B202210120FDF723F90348B8
:104B2000028802210846FDF71DF910BD140100207E
:104B3000012080F3108800BFFFF7C2FC0120FDF7C1
:104B4000D5F90120FDF704FAFBF736FD00F02EFD44
:104B500000BFFEE710B504460E48006844600E48EA
:104B60000068844207D20B480168091D0B480068A1
:104B700000F09CFA0CE007480168091D084800682D
:104B800000F094FA07480068844201D205480460A6
:104B900010BD00007C010020900100208401002055
:104BA00080010020AC0100202DE9F04105460F46B0
:104BB0001FB9A80000F0A4F900E03846064656B137
:104BC000542000F09DF904460CB1266304E0304601
:104BD00000F0DAFA00E0002424B1A900A522206B3D
:104BE000FBF74AFB2046BDE8F081000070B523E0EA
:104BF00000F08EFD1348006808B9012000E0002095
:104C0000054601F0EFFABDB900F076FA0D48C0682C
:104C1000C468201D00F026FA0B480068401E0A49AF
:104C200008600A480068401E0849086000F08EFAD3
:104C3000204600F00DF800BF044800680028D7D1D6
:104C400070BD0000B83B00208C01002088010020CE
:104C500010B50446206B00F097FA204600F094FA55
:104C600010BD000030B54FF4F043174800F00704C2
:104C70002CB1C01D20F00700134C041B1B1B024667
:104C8000124C22600024114D6C60D018083820F0BE
:104C900007000F4C206000240D4D2D686C600C4DFA
:104CA0002D682C601146441A4C60094C24680C6035
:104CB000084D4C682C60084D4C682C604FF0004447
:104CC000064D2C6030BD0000E03B0020B401002008
:104CD000BC010020C4010020C0010020C801002048
:104CE00000BFFFF783FF064800680128F9D94FF09D
:104CF000805004490860BFF34F8FBFF36F8FF0E718
:104D00002439002004ED00E02DE9F04704460F4669
:104D100016469946DDF82080002507E0795D04F10C
:104D200034004155785D00B902E06D1C102DF5D3BB
:104D300000BF0021432001551E2E00D31D26E66230
:104D4000201D00F0B0F904F1180000F0ACF9246166
:104D5000C6F11E00A06164620020E06484F8500087
:104D6000BDE8F08710B5002407E004EB84010F4A8A
:104D700002EB810000F08AF9641C1E2CF5D30C486C
:104D800000F084F90B4800F081F90B4800F07EF93F
:104D90000A4800F07BF90A4800F078F9044809490C
:104DA000086004480849086010BD0000243900204C
:104DB0007C3B0020903B0020A43B0020B83B00201F
:104DC000CC3B0020800100208401002010B501466A
:104DD000164800E0006803688B42FBD30246436834
:104DE00013448B4204D143684C682344436001461A
:104DF0000A464B6813440468A34211D10C4C036863
:104E00002468A34208D04B680468646823444B605C
:104E100003681B680B6005E0054B1B680B6001E035
:104E200003680B60884200D0016010BDB40100200F
:104E3000BC0100200A490968096809B9012100E09C
:104E4000002121B14FF0FF31064A116006E004490C
:104E50000968C968C868034A416811607047000062
:104E600080010020AC0100200E480068401C08B9F9
:104E7000012000E0002050B900BF102080F311880D
:104E8000BFF34F8FBFF36F8F00BF00BFFEE700BFC0
:104E9000102080F31188BFF34F8FBFF36F8F00BFD7
:104EA00000BFFEE7CC01002010B5024600201146ED
:104EB00052B900BF102383F31188BFF34F8FBFF3A4
:104EC0006F8F00BF00BFFEE70B4C4B69A34201D1BF
:104ED000012300E0002373B1084C8B6AA34201D187
:104EE000012300E0002333B98B6A0BB9012300E0F2
:104EF000002303B1012010BDCC3B0020A43B0020C7
:104F00002DE9F04104464FF0000800F001FC46484E
:104F1000006808B9FFF7A6FE444800682040002852
:104F20006BD1D4B1083404F00700B0B104F007002D
:104F3000C0F10800044404F0070008B9012000E0B3
:104F4000002050B900BF102080F31188BFF34F8FAD
:104F5000BFF36F8F00BF00BFFEE7002C4DD0344879
:104F60000068844249D8334E3046056801E02E4639
:104F70002D686868A04202D228680028F7D12A4824
:104F80000068854239D0306800F108082868306030
:104F90006868001B102819D92F1907F0070008B9F5
:104FA000012000E0002050B900BF102080F31188DC
:104FB000BFF34F8FBFF36F8F00BF00BFFEE768687E
:104FC000001B78606C603846FFF700FF184968687E
:104FD0000968081A164908600846006816490968F1
:104FE000884203D212480068134908600F49686874
:104FF0000968084368600020286001F0F3F808F0B1
:10500000070008B9012000E0002050B900BF1020BF
:1050100080F31188BFF34F8FBFF36F8F00BF00BFC6
:10502000FEE74046BDE8F081BC010020C801002039
:10503000C0010020B4010020C4010020001F4FF077
:1050400080730360001F0160001F054B036014386C
:105050000260001F6FF002030360203870470000F9
:10506000694E000801460A69D1E901309860D1E92A
:10507000010358605068884201D188685060002060
:1050800008611068401E10601068704700F1080148
:1050900041604FF0FF31816000F10801C1600161A2
:1050A00000210160704700210161704710B5024680
:1050B0000B685C1C0CB9106907E002F1080000E005
:1050C0004068446824689C42FAD944684C604C6843
:1050D000A160886041600A611468641C146010BD9E
:1050E00042684A6093688B60936859609160086178
:1050F00003685B1C0360704700BF102080F31188B9
:10510000BFF34F8FBFF36F8F00BF0E480068401C86
:105110000C49086008460068012812D10A48006856
:10512000C0B208B9012000E0002050B900BF102033
:1051300080F31188BFF34F8FBFF36F8F00BF00BFA5
:10514000FEE77047CC01002004ED00E00D48006848
:1051500050B900BF102080F31188BFF34F8FBFF309
:105160006F8F00BF00BFFEE706480068401E05497C
:1051700008600846006820B9002080F3118800BF4D
:1051800000BF7047CC01002070B506463546002EA2
:105190003FD0083D2C461F4960680968084008B1A7
:1051A000012000E0002050B900BF102080F31188DA
:1051B000BFF34F8FBFF36F8F00BF00BFFEE72068C4
:1051C00008B9012000E0002050B900BF102080F392
:1051D0001188BFF34F8FBFF36F8F00BF00BFFEE793
:1051E0000C4960680968084098B1206888B9094985
:1051F000606809688843606000F08AFA0649606860
:1052000009680844044908602046FFF7DFFD00F004
:10521000E9FF70BDC8010020C001002003484FF025
:10522000E021486107200861704700003F900200BC
:1052300070B5FBF70BF80446102C16D304F1E020F0
:1052400090F8F05315480078854201DB012000E01A
:10525000002050B900BF102080F31188BFF34F8F9A
:10526000BFF36F8F00BF00BFFEE70D48006800F47A
:10527000E0600C490968884201D8012000E0002064
:1052800050B900BF102080F31188BFF34F8FBFF3D8
:105290006F8F00BF00BFFEE770BD0000D00100208F
:1052A0000CED00E0D40100204EE02848006800F03A
:1052B000BBF92748006800F0B7F94FF47A70FFF7A0
:1052C000CDF824492448FBF723F94FF47A70FFF70F
:1052D000C5F8FDF737FEFCF74DFFFDF7C9F81FA035
:1052E000FEF722FF6420FFF7B9F8FCF75DF84FF4F2
:1052F0007A70FFF7B3F8002240F225511D48FEF7FF
:10530000C0FC1D48006800F08FF9002240F22551D2
:105310001A48FEF7B6FC0120FFF7A0FB0220FFF7BA
:105320009DFB0420FFF79AFB1548006800F07CF90C
:105330001448006800F078F91348006800F074F928
:105340001248006800F070F9AFE70000B0000020DC
:10535000B40000207700002070000020B5F7CAD408
:10536000B4B0BFDA2E414756C1ACBDD32E76616CC6
:105370003D31000000440040B800002000500040D3
:10538000C4000020D8000020DC000020C000002065
:1053900070B5044600266CB31B48006808B90120AC
:1053A00000E0002050B900BF102080F31188BFF347
:1053B0004F8FBFF36F8F00BF00BFFEE700F0A8F96B
:1053C00012480068051912480068001DFFF74AFEE0
:1053D00050B90F48006890F82C10012088400D4902
:1053E000096881430B4801602846FFF7B3FB00F0D2
:1053F000F9FE06463EB94FF0805007490860BFF3FA
:105400004F8FBFF36F8F70BDB0010020900100205F
:105410007C0100209401002004ED00E02DE9F0471C
:1054200004460E464FF0000954B900BF102080F327
:105430001188BFF34F8FBFF36F8F00BF00BFFEE730
:105440000EB1012000E0002050B900BF102080F311
:105450001188BFF34F8FBFF36F8F00BF00BFFEE710
:105460002848006808B9012000E0002050B900BFBA
:10547000102080F31188BFF34F8FBFF36F8F00BFF1
:1054800000BFFEE700F044F91F48D0F80080206814
:1054900085192068404507D92068A8420BD94545A1
:1054A00009D94FF0010906E02068A84201D8454516
:1054B00001D94FF001092560B9F1000F13D013484D
:1054C0000068001DFFF7CEFD50B91048006890F845
:1054D0002C10012088400E49096881430C48016066
:1054E0002846FFF737FB00F07DFE07463FB94FF037
:1054F000805008490860BFF34F8FBFF36F8FBDE83E
:10550000F0870000B0010020900100207C01002005
:105510009401002004ED00E070B505462C4655B915
:1055200000BF102080F31188BFF34F8FBFF36F8F40
:1055300000BF00BFFEE77CB31848006884422BD050
:10554000FFF7DAFD2046FFF7AFFC012822D1201D2E
:10555000FFF788FD94F82C10012088401049096855
:1055600008430F490860E16A01EB81010D4A02EB33
:105570008100211DFFF7B4FD0849E06A0968C96A86
:10558000884207D34FF0805007490860BFF34F8F20
:10559000BFF36F8FFFF7DAFD70BD00007C010020C4
:1055A000940100202439002004ED00E01FB5002004
:1055B0000090019002900346802215A103901648A6
:1055C00000F01CFB0446012C15D100BF102080F315
:1055D0001188BFF34F8FBFF36F8F00BF4FF0FF30C5
:1055E0000E49086001200E49086000200D4908603E
:1055F00000F066FA0BE054B900BF102080F3118868
:10560000BFF34F8FBFF36F8F00BF00BFFEE71FBD1B
:1056100049444C4500000000E14C0008AC0100206A
:10562000980100209001002070B50546FFF764FD49
:1056300015B92F48006800E028460446201DFFF7F2
:1056400011FD78B9E06A00EB80002A4951F820008A
:1056500040B994F82C1001208840274909688143FB
:1056600025480160A06A18B104F11800FFF7FAFCA0
:10567000211D2248FFF734FDFFF768FD1C48006834
:1056800084422AD11E480068D0B11E48006808B97B
:10569000012000E0002050B900BF102080F31188E5
:1056A000BFF34F8FBFF36F8F00BF00BFFEE74FF018
:1056B000805015490860BFF34F8FBFF36F8F15E01F
:1056C0000E48006811490968884203D10020084942
:1056D00008600BE000F024F808E00948006828B1F1
:1056E000FFF70AFDFFF7A6FBFFF730FD70BD0000D6
:1056F0007C0100202439002094010020CC3B0020B4
:1057000098010020B001002004ED00E08C01002091
:1057100002480068401C014908607047B001002041
:105720001D48006818B101201C49086032E00020C3
:105730001A4908601A480068B0FA80F0C0F11F01E9
:1057400001EB8100174A52F8200008B1012000E067
:10575000002050B900BF102080F31188BFF34F8F95
:10576000BFF36F8F00BF00BFFEE701EB81020D4B5F
:1057700003EB820042685268426000F1080243680D
:10578000934202D14268526842604268D268064B36
:105790001A6000BF70470000B0010020A001002087
:1057A00094010020243900207C01002008B58BE002
:1057B0004FF0FF336A461946184600F0A1FC044634
:1057C000012CF4D1009800F01000B0B1FBF7BAFD45
:1057D000FCF718FE3D480078002875D06420FEF7DD
:1057E0003DFE3BA0FEF7A0FC6420FEF737FEFBF772
:1057F000DBFD00203549087066E0009800F00100EC
:1058000090B1FCF773FF6420FEF728FE35A0FEF789
:105810008BFC6420FEF722FEFBF7C6FD01202B491E
:105820000870FAF7B3FE4FE0009800F00200B8B13C
:105830003148FDF7C9F9FCF7E5FD24480078002858
:1058400042D06420FEF70AFE21A0FEF76DFC642022
:10585000FEF704FEFBF7A8FD00201C49087033E0AA
:10586000009800F00400B0B12348FDF71BF9FCF7E5
:10587000C9FD1648007838B36420FEF7EFFD14A088
:10588000FEF752FC6420FEF7E9FDFBF78DFD0020DA
:105890000E49087018E0009800F00800A0B1FBF76E
:1058A00051FDFCF7AFFD0948007868B16420FEF7B0
:1058B000D5FD07A0FEF738FC6420FEF7CFFDFBF70F
:1058C00073FD00200149087072E70000F900002014
:1058D000D0D0CABBBDE7C3E62ECDD1B9EC2E7661E0
:1058E0006C3D3000D0D0CABBBDE7C3E62ECDD1B9E8
:1058F000EC2E76616C3D3100ED01002008B500BF53
:1059000000F052FB009008E004490548FAF700FE59
:1059100041F288316846FFF781FDF5E77700002006
:105920007000002008B51DE04FF0FF336A461946AD
:10593000184600F0E5FB0446012C10D10A48008807
:1059400002280CD1009800F0010010B1FAF734FDE4
:1059500005E0009800F0020008B1FAF763FD0A20A4
:10596000FFF716FDE0E700002001002008B51DE06C
:105970004FF0FF336A461946184600F0C1FB044653
:10598000012C10D10A48008801280CD1009800F0A1
:10599000010010B1FAF710FD05E0009800F00200D8
:1059A00008B1FAF73FFD0A20FFF7F2FCE0E700003C
:1059B000200100200FE008480088012802D1FDF7EF
:1059C0001FFA05E004480088022801D1FDF75EFDBA
:1059D0000A20FFF7DDFCEEE72001002008B519E002
:1059E0004FF0FF336A461946002000F089FB044659
:1059F000012C0CD1009800F0010010B1FAF76AFDFB
:105A000005E0009800F0020008B1FAF745FD0A2011
:105A1000FFF7BEFCE4E700000FE00848008801281B
:105A200002D1FDF7F5FA05E004480088022801D10B
:105A3000FDF7DEFD0A20FFF7ABFCEEE720010020BA
:105A400010E0002008490870FDF786FB0648007842
:105A500010B10120FFF702F80020034908700A2066
:105A6000FFF796FCEDE70000FE00002007E00020B5
:105A700003490870FDF7E2FB0520FFF789FCF6E714
:105A8000FF00002010E0002008490870FDF762FECA
:105A90000648007810B10420FEF7E0FF002003491B
:105AA00008700A20FFF774FCEDE7000000010020F9
:105AB00004E0FEF717F81420FFF76AFCF9E700008E
:105AC0001CB5474800684749884201D0012000E0E2
:105AD000002050B900BF102080F31188BFF34F8F12
