:020000040800F2
:10000000180800208D230008392200083B22000830
:10001000692200086B2200086D2200080000000021
:10002000000000000000000000000000150F0008A4
:100030006F22000800000000BD0E0008CF0A000873
:10004000E5230008E9230008ED230008F123000858
:10005000F5230008F9230008FD2300080124000807
:1000600005240008092400080D24000811240008B4
:1000700015240008192400081D2400082124000864
:1000800025240008292400082D2400083124000814
:1000900035240008392400083D24000841240008C4
:1000A00045240008492400084D2400085124000874
:1000B00055240008592400085D2400086124000824
:1000C00065240008692400086D24000871240008D4
:1000D00075240008231600082D160008371600089E
:1000E000792400087D240008812400088524000864
:1000F000892400088D240008912400089524000814
:10010000992400089D240008A1240008A5240008C3
:10011000A9240008AD240008B1240008B524000873
:10012000B9240008BD240008C1240008C524000823
:10013000C9240008CD240008D1240008D5240008D3
:10014000D9240008DD240008E1240008E524000883
:10015000E9240008ED240008F124000841160008F5
:10016000F5240008F9240008FD24000801250008F2
:1001700005250008092500080D250008112500089F
:1001800015250008192500082DE9FA4F83B0040051
:1001900015000E9E0F9FDDF84080DDF84490200092
:1001A000002807D1102080F31188BFF34F8FBFF3D1
:1001B0006F8FFEE7052E07D3102080F31188BFF361
:1001C0004F8FBFF36F8FFEE74146280080B200F0EB
:1001D0004FFB8246BAF1000F7AD0DAF83000ADB2A8
:1001E00010EB8500001F83465FEADB0B5FEACB0B59
:1001F0001BF00700002807D0102080F31188BFF300
:100200004F8FBFF36F8FFEE7280080B200904B4600
:1002100032000399504600F070FA049A21005846C3
:1002200000F092FBCAF80000002F01D0C7F800A030
:1002300000F017FCDFF878040068401CDFF8701449
:100240000860DFF87004006800280BD1DFF8640450
:10025000C0F800A0DFF858040068012811D100F0B0
:100260007FFA0EE0DFF850040068002809D1DFF8BB
:1002700044040068C06A864203D3DFF83804C0F83B
:1002800000A0DFF838040068401CDFF83014086074
:10029000DFF828040068CAF84400DFF82404006886
:1002A0000121DAF82C2091400843DFF8141408608B
:1002B0001AF10401DFF80C04DAF82C20142303FBF4
:1002C000020000F04AFC0120019000F0E7FB02E090
:1002D0005FF0FF3001900198012813D1DFF8D803B7
:1002E000006800280ED0DFF8CC030068C06AB04276
:1002F00008D25FF08050DFF8D8130860BFF34F8F4B
:10030000BFF36F8F019805B0BDE8F08F70B50400A2
:100310000026002C30D0DFF8B0030068002807D09A
:10032000102080F31188BFF34F8FBFF36F8FFEE76C
:1003300000F064F8DFF89403006820180500DFF887
:1003400074030068001D00F031FC00280ED1DFF8B6
:1003500064030068DFF8681309680122C06A12FAB2
:1003600000F031EA0000DFF858130860280000F0C0
:1003700055FA00F04BF80600002E08D15FF08050CF
:10038000DFF8E4140860BFF34F8FBFF36F8F70BDC9
:100390001FB5002003900020029000200190002053
:1003A000009000238022DFF860150FF22930FFF75C
:1003B000EBFE0400012C16D1102080F31188BFF34E
:1003C0004F8FBFF36F8F5FF0FF30DFF8401508608D
:1003D0000120DFF8E41208600020DFF8F012086066
:1003E00000F0D9FA09E0002C07D1102080F3118821
:1003F000BFF34F8FBFF36F8FFEE71FBDDFF8C8025B
:100400000068401CDFF8C0120860704738B500254E
:10041000DFF8B4020068002807D1102080F31188AB
:10042000BFF34F8FBFF36F8FFEE700F01AFBDFF8CB
:1004300098020068401EDFF890120860DFF888021A
:10044000006800285ED1DFF868020068002859D0F3
:10045000DFF8B004006800282AD0DFF8A804C068DC
:10046000C068040014F1180000F0A0FB201D00F08B
:100470009DFBDFF84C0200680121E26A91400843CD
:10048000DFF83C120860211DDFF83802E26A14230D
:1004900003FB020000F061FBE06ADFF81812096854
:1004A000C96A8842D4D30120DFF874140860CFE70A
:1004B000DFF85C040068002814D0DFF854040068FA
:1004C00000280FD000F022F8002803D00120DFF828
:1004D00050140860DFF838040068401EDFF830145C
:1004E0000860EAE7DFF83804006801280AD1012033
:1004F00005005FF08050DFF870130860BFF34F8F86
:10050000BFF36F8F00F0CAFA280032BD2DE9F04129
:100510000026DFF8B4010068002840F08080DFF892
:10052000AC010068401CDFF8A4110860DFF89C01F2
:100530000768002F24D1DFF8DC030068006800287A
:1005400007D0102080F31188BFF34F8FBFF36F8F58
:10055000FEE7DFF8C00300688046DFF8BC030068F0
:10056000DFF8B0130860DFF8B003C0F80080DFF8F0
:10057000AC030068401CDFF8A413086000F0AEF97B
:10058000DFF88803006887423CD3DFF888030068FF
:100590000068002805D15FF0FF30DFF870130860B5
:1005A00030E0DFF870030068C068C068040060686D
:1005B0000500AF4203D2DFF85403056022E0201D9E
:1005C00000F0F4FAA06A002803D014F1180000F03B
:1005D000EDFA3B4800680121E26A9140084338493E
:1005E0000860211D3748E26A142303FB020000F073
:1005F000B4FAE06A2F490968C96A8842C5D3012064
:100600000600C2E72F482B490968C96A142202FB79
:1006100001000068022809D30120060006E0DFF887
:10062000F0020068401CDFF8E8120860DFF8F00212
:100630000068002801D0012006003000BDE8F081EC
:1006400021480068002804D00120DFF8D412086097
:100650002DE00020DFF8C812086019490968B1FAD6
:1006600081F1D1F11F0108001649142202FB00118B
:100670000968002907D1102181F31188BFF34F8F3A
:10068000BFF36F8FFEE70F4A142303FB0022110014
:100690004A6852684A604A6811F108039A4202D1D6
:1006A0004A6852684A604968C968024A11607047DE
:1006B0006CA200205CA2002078A2002088A200206A
:1006C00074A20020B8A0002090A2002070A20020F8
:1006D00004ED00E010B5040000F06DF8DFF848020A
:1006E00000680228F8D35FF08050DFF844120860F9
:1006F000BFF34F8FBFF36F8FEEE72DE9F04104009A
:100700000D0016001F0000208046B8F1100F0CD21B
:1007100018F8050018EB040181F8340018F80500FA
:10072000002802D018F10108EFE7002084F8430008
:10073000052E01D304200600E662201D0021016180
:1007400014F11800002101612461D6F10500A061B7
:1007500064620020E064002084F85000BDE8F0816D
:1007600010B500200400052C08D2DFF8BC011421CC
:1007700001FB040000F0E2F9641CF4E7DFF8B401C7
:1007800000F0DCF9DFF8B00100F0D8F95D4800F0C6
:10079000D5F9DFF8A80100F0D1F9344800F0CEF91E
:1007A000DFF89001DFF86C110860DFF88C01DFF8EA
:1007B0006811086010BD38B5DFF8840100680028B2
:1007C0002BD0FFF71BFEDFF874010068002801D171
:1007D000012400E00024FFF719FE002CECD100F00A
:1007E00040F9DFF85801C068C0680500281D00F016
:1007F000DDF9DFF850010068401EDFF8481108609D
:10080000DFF83C010068401EDFF83411086000F09A
:1008100045F9280000F059F8CEE731BD10B50400C5
:10082000DFF8080100684460DFF8F80000688442DF
:1008300009D2DFF8F8000068011DDFF8DC0000686D
:1008400000F097F90EE0DFF8E4000068011DDFF822
:10085000C400006800F08DF92C480068844201D281
:100860002A48046010BD000004ED00E00CA2002046
:100870002DE9F84304000D00002D04D1A4B2A0001E
:1008800000F0A8F900E028000700002F0BD054204A
:1008900000F0A0F90600002E01D0376305E0380013
:1008A00000F024FA01E000200600002E0AD0A4B2D5
:1008B000A7005FF0A508D6F83090424639004846B8
:1008C00000F0C8FA3000BDE8F28310B50400206BD8
:1008D00000F00CFA200000F009FA10BD0D4909687B
:1008E0000968002904D15FF0FF31084A116007E070
:1008F00008490968C968C96808004168034A116065
:1009000070470000E4A10020D82300088CA200203A
:100910007CA2002060A2002064A2002084A200200B
:1009200080A2002070A20020B8A000205CA20020BD
:1009300004ED00E0BCA10020D0A10020F8A100201F
:1009400068A200206CA20020001F5FF0807303608B
:10095000001F0160001F0FF21503036014380260CE
:10096000001F7FF00203036020387047664800686C
:1009700010F1010F07D0102080F31188BFF34F8FC3
:10098000BFF36F8FFEE7102080F31188BFF34F8F06
:10099000BFF36F8FFEE700B583B05C4800685C4929
:1009A000884207D1102080F31188BFF34F8FBFF327
:1009B0006F8FFEE7554800685649884207D11020DE
:1009C00080F31188BFF34F8FBFF36F8FFEE752485C
:1009D00001780191FF21017001788DF800109DF8D8
:1009E000001011F010014D4A117007214C4A11609E
:1009F0009DF8001009060AD549490968491E484A68
:100A000011609DF8001049008DF80010F0E744498E
:100A100009680902424A11604149096811F4E0611C
:100A20003F4A1160019901703E48006850F470001F
:100A30003C4908603B48006850F070403949086004
:100A400000F05BF800203049086000F07DFA36487D
:100A5000006850F040403449086000F069FA002016
:100A60000EBD102080F31188BFF34F8FBFF36F8F3F
:100A700025480068401C2449086023480068012874
:100A80000BD12A480068000607D0102080F3118897
:100A9000BFF34F8FBFF36F8FFEE770471A480068B0
:100AA000002807D1102080F31188BFF34F8FBFF3C8
:100AB0006F8FFEE714480068401E13490860124813
:100AC0000068002802D1002080F31188704780B5AB
:100AD000EFF31180102080F31188BFF34F8FBFF325
:100AE0006F8FFFF713FD002803D05FF080500F4990
:100AF0000860002080F3118801BD0D480D49086091
:100B000007200D49086070470000002000ED00E05C
:100B100071C20F4170C20F4100E400E095A20020B5
:100B200058A2002020ED00E034EF00E004ED00E0EA
:100B30003F90020014E000E010E000E010F1080136
:100B400041605FF0FF31816010F10801C16010F178
:100B50000801016100210160704742684A609368A2
:100B60008B60936859609160086103685B1C036047
:100B7000704710B40B6813F1010F02D10469220011
:100B800008E010F10804220054682468A34201D34D
:100B90005268F9E754684C604C68A1608A60516003
:100BA00008610468641C046010BC70470100086997
:100BB0008A684B689A604A688B685A6042688A42C1
:100BC00001D18A68426000220A610268521E0260F6
:100BD000006870472DE9F04104005FF00008FFF75E
:100BE0000DFC95480068002801D100F0BBF893483F
:100BF0000068044269D1002C15D09148006804199E
:100C000014F0070F0FD014F1080014F00701441A74
:100C100014F0070F07D0102080F31188BFF34F8F17
:100C2000BFF36F8FFEE7002C4FD086480068A042CC
:100C30004BD3854806008448006805006868A042D8
:100C400005D22868002802D02E002D68F6E77A48E1
:100C50000068854239D030687949096808188046AB
:100C6000286830607648006840006968091B88423F
:100C700014D26019070017F00700002807D01020D1
:100C800080F31188BFF34F8FBFF36F8FFEE7686863
:100C9000001B78606C60380000F09BF869480068C1
:100CA0006968401A674908606648006867490968CA
:100CB000884203D2634800686449086068685F49F5
:100CC00009680843686000202860FFF79FFB18F060
:100CD0000700002807D0102080F31188BFF34F8F42
:100CE000BFF36F8FFEE74046BDE8F08170B50400AA
:100CF0002600002C35D052480068361A3500686846
:100D00004E490968084207D1102080F31188BFF3CB
:100D10004F8FBFF36F8FFEE72868002807D01020A1
:100D200080F31188BFF34F8FBFF36F8FFEE76868C2
:100D300042490968084214D02868002811D168681F
:100D40003E49096888436860FFF758FB3D480068E2
:100D5000696808183B490860280000F03AF8FFF776
:100D600055FB70BD30B44FF4F043394C220012F003
:100D7000070F05D0D21DD208D2009B1A344CE318BD
:100D80001100314C216000242F4D6C605C18220052
:100D90002B4C2468121BD208D200274C226000245E
:100DA000254D2D686C600024234D2D682C600800B3
:100DB000141A4460204C246804604468234D2C605D
:100DC0004468204D2C605FF000441C4D2C6030BC0A
:100DD000704710B41C4B1A001368834201D212688A
:100DE000FAE7110053685B18834204D153684468E2
:100DF000E31853601000010043685B181468A342B5
:100E000011D113680C4C2468A34208D043681468BD
:100E10006468E318436013681B68036005E0064BD1
:100E20001B68036001E013680360824200D0106019
:100E300010BC70470000000038A2002044A200202F
:100E4000E02300083CA2002030A2002040A20020A5
:100E50001808002062F30F2262F31F42401810F0BE
:100E6000030308D0C91A1FD3DB0748BF00F8012DC0
:100E700028BF20F8022D130030B41446154610394F
:100E800028BF20E93C00FAD8490728BF20E90C0018
:100E900048BF40F8042D890028BF20F8022D48BF24
:100EA00000F8012D30BC7047C91818BF00F8012D9B
:100EB000CB0728BF00F8012D70470000EFF3098031
:100EC000BFF36F8F244B1A681EF0100F08BF20ED80
:100ED000108A20E9F04F106008B44FF0100080F342
:100EE0001188BFF34F8FBFF36F8FFFF7A9FB4FF050
:100EF000000080F3118808BC19680868B0E8F04F5A
:100F00001EF0100F08BFB0EC108A80F30988BFF301
:100F10006F8F7047104B19680868B0E8F04F80F386
:100F20000988BFF36F8F4FF0000080F3118870477E
:100F30000A480068006880F3088862B661B6BFF3AB
:100F40004F8FBFF36F8F00DFDFF81400016841F4AB
:100F500070010160704700005CA2002008ED00E015
:100F600088ED00E080B500F02CF800F021F900F0E9
:100F700003F800F0A8FA01BD00B583B001210220FA
:100F800000F017FC01208DF8040000208DF8060009
:100F900000208DF8070003208DF805000420009044
:100FA0006946DFF8C80600F043FC07BD0420DFF8FF
:100FB000C016088070470420DFF8B8160880704714
:100FC0007047DFF89806DFF884160860DFF8A80697
:100FD000DFF878164860DFF8A406DFF8701688603E
:100FE0004FF48060DFF8641688814FF48060DFF88A
:100FF0005C16C8810020DFF8541608820020DFF854
:101000004C1648820020DFF84416C8820020DFF822
:101010003C1608830020DFF8341648830020DFF8F0
:101020002C1688820020DFF82416C8610020DFF823
:101030001C1608620020DFF814164862DFF820064C
:10104000DFF80C160860DFF83806DFF80416486091
:10105000DFF83006DFF8F81588600120DFF8F015BA
:1010600088814FF40060DFF8E815C8810020DFF8C0
:10107000E01508820020DFF8D81548820020DFF84C
:10108000D015C8820020DFF8C81508830020DFF8DB
:10109000C01548830020DFF8B81588820020DFF8EB
:1010A000B015C8610020DFF8A81508620020DFF83D
:1010B000A0154862DFF8AC05DFF898150860DFF886
:1010C000C805DFF890154860DFF8C005DFF8841523
:1010D00088604FF48060DFF87C1588814FF4806071
:1010E000DFF87015C8810020DFF86815088200203D
:1010F000DFF8601548820020DFF85815C88200200C
:10110000DFF8501508830020DFF8481548830020D9
:10111000DFF840158882DFF87805DFF83815C861F8
:10112000DFF87005DFF82C150862DFF86C05DFF8D2
:1011300024154862DFF83005DFF81C150860DFF879
:101140005C05DFF814154860DFF85405DFF8081572
:1011500088604FF48060DFF8001588814FF480606C
:10116000DFF8F414C8810020DFF8EC1408820020B6
:10117000DFF8E41448820020DFF8DC14C882002085
:10118000DFF8D41408830020DFF8CC144883002053
:10119000DFF8C41488820020DFF8BC14C861002086
:1011A000DFF8B41408620020DFF8AC14486270471E
:1011B00000B587B00121012000F0FBFA01211020C9
:1011C00000F017FB07220921DFF8D80400F085FBA7
:1011D00007220A21DFF8CC0400F07FFB00208DF805
:1011E000060001208DF8070002208DF804004FF45E
:1011F0000070009002208DF805006946DFF8A40415
:1012000000F016FB02208DF804004FF4806000907F
:101210006946DFF8900400F00BFB5FF4E1300290C8
:101220000020ADF80C000020ADF80E000020ADF855
:1012300010000020ADF814000C20ADF8120002A937
:10124000DFF8180400F076FB012240F22551DFF8A8
:101250000C0400F003FC0121DFF8000400F0E8FBBF
:101260004021DFF8F80300F024FC0121012000F008
:10127000A0FA01215FF4003000F0ACFA072203214C
:10128000DFF8200400F029FB00208DF80600012083
:101290008DF8070002208DF8040002208DF804006C
:1012A0000820009002208DF805006946DFF8F4035D
:1012B00000F0BEFA4FF4165002900020ADF80C007A
:1012C0000020ADF80E000020ADF810000020ADF8B1
:1012D00014000420ADF8120002A9DFF8840300F026
:1012E00029FB012240F22551DFF8740300F0B6FB20
:1012F0000121DFF86C0300F09BFB4021DFF8600365
:1013000000F0D7FB0121022000F053FA01208DF8F4
:10131000040000208DF8060000208DF8070003204F
:101320008DF80500042000906946DFF8400300F0C6
:101330007FFA0121022000F03CFA01215FF48020B5
:1013400000F048FA07220A21DFF8200300F0C5FA6E
:1013500007220B21DFF8140300F0BFFA00208DF8FC
:10136000060001208DF8070002208DF804004FF4DC
:101370008060009002208DF805006946DFF8EC02DD
:1013800000F056FA02208DF804004FF4006000903F
:101390006946DFF8D80200F04BFA4FF4165002907D
:1013A0000020ADF80C000020ADF80E000020ADF8D4
:1013B00010000020ADF814000C20ADF8120002A9B6
:1013C000A84800F0B7FA012240F22551A54800F0E4
:1013D00045FB0121A34800F02BFB4021A14800F070
:1013E00068FB0121442000F0E4F90121202000F0F5
:1013F00000FA08220E21AC4800F06FFA08220721FB
:10140000AA4800F06AFA08220821A74800F065FA05
:1014100008220F21A44800F060FA00208DF8060091
:1014200001208DF8070002208DF804004FF4804061
:10143000009002208DF8050069469B4800F0F8F9FD
:1014400002208DF80400802000906946974800F043
:10145000EFF902208DF804004FF480700090694687
:10146000914800F0E5F902208DF804004FF40040A7
:10147000009069468C4800F0DBF95FF4E13002909F
:101480000020ADF80C000020ADF80E000020ADF8F3
:1014900010000020ADF814000C20ADF8120002A9D5
:1014A000714800F047FA012240F225516E4800F0E1
:1014B000D5FA01216C4800F0BBFA40216A4800F0DF
:1014C000F8FA07B000BD80B525208DF80000002097
:1014D0008DF8020001208DF80300684600F02DFB16
:1014E00026208DF8000001208DF8020001208DF8E3
:1014F0000300684600F021FB27208DF80000022041
:101500008DF8020001208DF80300684600F015FBFD
:1015100047208DF8000005208DF8020001208DF88D
:101520000300684600F009FB01BD38B5040040F235
:101530002551206800F0C3FA00281DD0206800F073
:1015400089FA0500A068E18A0D54E08A401CE08217
:10155000E18980B2884201D30020E082608BE1897A
:10156000884202D2608B401C6083606A002803D0EE
:101570002800C0B2616A884740F22771206800F0F5
:101580009EFA002823D0A08A00280CD1002240F225
:101590002771206800F062FA012240F2266120687B
:1015A00000F05CFA3CE06068618A095C89B22068FE
:1015B00000F04CFA608A401C6082A18980B28842A7
:1015C00001D300206082A08A401EA08228E040F261
:1015D0002661206800F073FA002821D0A08A002834
:1015E0000BD1002240F22661206800F037FA206A11
:1015F000002815D0206A804712E06068618A095C83
:1016000089B2206800F022FA608A401C6082A189B9
:1016100080B2884201D300206082A08A401EA0824E
:1016200031BD80B50948FFF780FF01BD80B508488E
:10163000FFF77BFF01BD80B50648FFF776FF01BDD0
:1016400080B50548FFF771FF01BD00001CA1002017
:1016500044A100206CA1002094A1002000100140B2
:1016600000440040004800400014014000040240D3
:10167000180402401A04024018880020188C002028
:1016800094A20020188000201890002018940020B8
:10169000AD0F0008B70F0008C10F00081898002010
:1016A000189C002000000240001802400008024080
:1016B000F0B4002100220023022400250226DFF8D6
:1016C00050713F6817F00C0739000F00002F04D04D
:1016D000042F06D0082F08D03CE0DFF83C710760EB
:1016E0003BE0DFF83871076037E0DFF828713F68CA
:1016F000C7F380573D00DFF81C713F6817F03F07C4
:101700003E00002D0DD0DFF81471B7FBF6F7DFF8BF
:1017100004C1DCF800C0CCF3881C0CFB07F73B00CD
:101720000CE0DFF8F470B7FBF6F7DFF8E8C0DCF8A0
:1017300000C0CCF3881C0CFB07F73B00DFF8D4702B
:101740003F68C7F301477F1C7F003C00B3FBF4F701
:10175000076002E0DFF8C0700760DFF8B4703F6830
:1017600017F0F00739000909DFF8B470CF5D3A00CF
:101770000768D7404760DFF898703F6817F4E05774
:101780003900890ADFF89870CF5D3A004768D74082
:101790008760DFF87C703F6817F460473900490BB9
:1017A000DFF87C70CF5D3A004768D740C760F0BC77
:1017B0007047C9B2002907D0DFF8682012680243D9
:1017C000DFF860301A6004E0164A12688243154B55
:1017D0001A607047C9B2002905D0134A1268024343
:1017E000114B1A6004E0104A126882430E4B1A60D3
:1017F0007047C9B2002905D00C4A126802430B4B4E
:101800001A6004E0094A12688243084B1A60704764
:1018100008380240043802400024F40040787D017A
:101820000400002030380240403802404438024072
:10183000F0B400220023002400252A00102A4AD2F6
:10184000012595402B000D681D402C009C4240D185
:10185000056803261700FFB27F00BE40B543056050
:1018600005680E791700FFB27F00BE403543056062
:101870000D79012D02D00D79022D1AD1856803262C
:101880001700FFB27F00BE40B543856085684E7982
:101890001700FFB27F00BE403543856045680126D2
:1018A0009640B543456045688E799640B6B235435B
:1018B0004560C56803261700FFB27F00BE40B543F0
:1018C000C560C568CE791700FFB27F00BE403543C2
:1018D000C560521CB2E7F0BC7047F0B4002300248E
:1018E000D2B211F00705EDB2AD0012FA05F52B00EA
:1018F00089B2CD1010EB850589B2CE1010EB8606AB
:10190000366A0F2711F0070C5FFA8CFC5FEA8C0C2B
:1019100017FA0CF7BE432E6289B2CD1010EB850585
:101920002D6A1D432C0089B2CD1010EB85052C6269
:10193000F0BC70472DE9F04385B004000D005FF066
:101940000009002600275FF00008A8890028208AE7
:10195000814639F44059E88850EA0909A4F8109002
:10196000A0898146314810EA0909A88829890843D5
:101970006989084350EA0909A4F80C90A08A8146B5
:1019800039F44079A88950EA0909A4F81490684606
:10199000FFF78EFE2348844202D02348844202D1BE
:1019A0000398060001E002980600A089000408D50B
:1019B000192000FB06F029684900B0FBF1F0070090
:1019C00007E0192000FB06F029688900B0FBF1F060
:1019D00007006420B7FBF0F0000181465FEA1910B0
:1019E000642101FB10708046A08900040AD55FEADB
:1019F000C80032306421B0FBF1F010F0070050EA6B
:101A0000090909E05FEA081032306421B0FBF1F007
:101A100010F00F0050EA0909A4F8089005B0BDE8DD
:101A2000F08300000010014000140140F3E9FFFFC3
:101A3000C9B2002904D0828952F40052828104E0A4
:101A400082894DF6FF731A4082817047CA05D20D14
:101A5000828070478088C005C00D7047F0B40023B5
:101A600000240025002689B240F66A17B942060014
:101A70000F00FFB27F09FFB23B0089B211F01F07D0
:101A80003C000127A7403D00012B01D10C3604E0AA
:101A9000022B01D1103600E01436D2B2002A03D056
:101AA00037682F43376002E03768AF433760F0BCD8
:101AB000704789B28A0589B2CA430280704770B400
:101AC0000300002400260025002089B240F66A1297
:101AD00091420A00D2B25209D2B2150089B211F075
:101AE0001F021600012212FA06F6012D02D19A8970
:101AF000164006E0022D02D11A8A164001E09A8AA9
:101B000016400A0092B2120A92B21400012212FA8E
:101B100004F41A881440002E04D0002C02D00122B4
:101B2000100001E000221000C0B270BC704700003D
:101B30001C4901431C4A1160704770B40023002106
:101B40000F22C478002C21D0174C246814F4E064D0
:101B5000D4F5E064240A2300D3F104042100D2B2B6
:101B60001A4144788C4023008478144023431B019D
:101B70000E4C05782B550124057815F01F05AC4057
:101B80000B4D0678761145F8264009E001240578CA
:101B900015F01F05AC40074D0678761145F8264034
:101BA00070BC70470000FA050CED00E000E400E0B6
:101BB00000E100E080E100E0DFF83C020068C005E1
:101BC00001D4012000E000207047DFF830020068F7
:101BD000800401D4012000E000207047DFF81802E3
:101BE0000068000501D4012000E000207047DFF804
:101BF00010020068400701D4012000E00020704777
:101C0000DFF8FC010068000701D4012000E000209B
:101C10007047DFF8F0010068000501D4012000E002
:101C200000207047DFF8E0010068000601D40120C1
:101C300000E000207047DFF8C8010068000401D40C
:101C4000012000E00020704780B5FFF7B5FF0028B5
:101C500005D0FFF7BAFF002801D0012000E00020E6
:101C600002BD80B5FFF7A8FF002805D0FFF7ADFF44
:101C7000002801D0012000E0002002BD80B500F066
:101C80004CF800F001F801BD00B583B001214FF41C
:101C9000F270FFF78EFD00208DF8040000208DF813
:101CA000060000208DF8070002208DF805004FF493
:101CB0008070009069465748FFF7BAFD4FF4005016
:101CC000009069465448FFF7B3FD4FF40060009060
:101CD00069465048FFF7ACFD0420009069464F4824
:101CE000FFF7A6FD0820009069464C48FFF7A0FDCD
:101CF0004FF40060009069464948FFF799FD802045
:101D0000009069464748FFF793FD4FF4004000906C
:101D100069464248FFF78CFD07BD00213B4A91729E
:101D200000213A4AD1720021384A1173002108007B
:101D3000C0B20A281FDA6421354AC0B212EB001281
:101D400011810221324AC0B212EB0012117100213E
:101D50002F4AC0B212EB0012917200212C4AC0B27D
:101D600012EB0012D1720021294AC0B212EB00120C
:101D70001173401CDCE76421254A11870521244AA0
:101D800082F83B106421224AA2F848100521204A1B
:101D900082F84B1064211E4AA2F8581005211C4AF3
:101DA00082F85B1064211A4AA2F868100521184ACB
:101DB00082F86B101C49164A11601C49144A1161C3
:101DC0001B49134A11621B49114A11631A49104AEF
:101DD00011641A490E4A116519490D4A11661949CB
:101DE0000B4A116718490A4AC2F880101749084A75
:101DF000C2F8901070470000102002401008024006
:101E0000101C0240101402401018024020A20020B2
:101E100018A000200020024000080240001C0240E0
:101E20000014024000180240B91B0008CB1B000838
:101E3000DD1B0008EF1B0008011C0008131C000834
:101E4000251C0008371C0008491C0008631C0008FA
:101E500080B54848006850F470004649086046481C
:101E6000006850F0010044490860002043490860C0
:101E700041480068424908403F490860414842499A
:101E800008603D48006830F480203B49086000202D
:101E90003E49086000F005F85FF000603C490860CA
:101EA00001BD82B0002001900020009032480068FF
:101EB00050F48030304908602F48006810F400303A
:101EC00000900198401C01900098002803D10198CF
:101ED000B0F5A04FF0D128480068800302D501205A
:101EE000009001E000200090009801283ED1294890
:101EF000006850F08050274908602748006850F477
:101F00004040254908601D4800681C4908601B487E
:101F1000006850F40040194908601848006850F4FF
:101F2000A050164908601D4817490860124800680B
:101F300050F08070104908600F4800688001FBD5A0
:101F400040F20570164908600C480068800880005F
:101F50000A4908600948006850F002000749086013
:101F60000648006810F00C000828F9D102B070474C
:101F70000000000088ED00E0003802400838024010
:101F8000FFFFF6FE10300024043802400C380240F7
:101F900008ED00E04038024000700040195440074E
:101FA000003C024000B583B001214FF49270FFF76E
:101FB00000FC012000F030F8022000F02DF8032092
:101FC00000F02AF8042000F027F801208DF8040022
:101FD00000208DF8060000208DF8070003208DF802
:101FE00005004FF48060009069462F48FFF720FC01
:101FF0008020009069462D48FFF71AFC4FF480704E
:10200000009069462948FFF713FC042000906946B8
:102010002748FFF70DFC07BD401EC0B2002804D1C1
:102020004FF48061234A118014E0C0B2012803D12B
:102030008021214A11800DE0C0B2022804D14FF462
:1020400080711D4A118005E0C0B2032802D104212D
:102050001A4A11807047C0B2012806D11849096890
:1020600091F48061164A11601CE0C0B2022806D1CA
:102070001449096891F08001124A116012E0C0B25F
:10208000032806D10F49096891F480710D4A116047
:1020900008E0C0B2042805D10B49096891F0040199
:1020A000094A1160704700000020024000140240FD
:1020B000000802401820024018140240180802408C
:1020C00014200240141402401408024080B501207C
:1020D00080F3108800F084F800F029F8FEF758F932
:1020E000FEE710B504000120FFF7B5FF6420FEF7FE
:1020F0000DF9F8E710B504000220FFF7ACFFC82087
:10210000FEF704F9F8E710B504000320FFF7A3FF7A
:102110004FF49670FEF7FAF8F7E710B504000420C4
:10212000FFF799FF4FF4C870FEF7F0F8F7E700B536
:1021300085B000200390002002901D4801900120EE
:10214000009000234FF400721A491B48FEF71CF858
:102150000020039000200290184801900220009077
:1021600000234FF4007216491648FEF70DF80020C0
:102170000390002002901448019003200090002357
:102180004FF4007211491248FDF7FEFF0020039042
:10219000002002900F4801900420009000234FF48B
:1021A00000720D490D48FDF7EFFF05B000BD0000BE
:1021B00048A200209C230008E32000084CA2002035
:1021C000A8230008F520000850A20020B42300082E
:1021D0000721000854A20020C02300081B2100088A
:1021E00080B54FF44070FFF7A3FCFEF7BBFEFFF78E
:1021F00045FDFFF7D7FE01BD19E050F8041BCB07E2
:1022000044BFA9F101035918121F0023042A41F801
:10221000043BF9D25FEA827C0B4604D54FF0000CF8
:10222000A1F800C09B1CD10744BF0021197050F8D1
:10223000042B002AE1D170477047084800221100A2
:10224000C9B22A2909D2C9B20A5C054B1A80054ACB
:1022500012885206FBD5491CF2E7FEE770220008FF
:102260000410014000100140FEE7FEE7FEE7704762
:102270000D0A456E74657220486172644661756C22
:10228000745F48616E646C65722C20537973746559
:102290006D2048616C742E0D0A00000010B450F8D7
:1022A000041B79B10268436812180830DC0744BF88
:1022B000A9F10104E31852F8044B43F8044B091F39
:1022C000F9D1ECE710BC704710B5074979441831D3
:1022D000064C7C44163404E00A68081D51188847EF
:1022E0000146A142F8D110BD2C0000004C000000B6
:1022F0004EF68851CEF20001086840F47000086084
:10230000BFF34F8FBFF36F8F4FF00070E1EE100AF5
:1023100070470000E5FEFFFF809A000018080020CB
:102320000000000079FFFFFF140000004C000000D7
:1023300000000020000000000120C046002801D05D
:10234000FFF7C2FF0020C046C046FFF7BFFE00F007
:1023500000F800F001B800000746384600F002F827
:10236000FBE7000080B5C046C046024A11001820B5
:10237000ABBEFBE726000200AAAAAAAA0000000042
:10238000010203040102030406070809014880470B
:1023900001480047511E0008CD23000876546173A0
:1023A0006B55736572494600765461736B4C4544B6
:1023B00000000000765461736B4D736750726F00BC
:1023C000765461736B53746172740000C046C046EA
:1023D000FFF78EFFFFF7B0FF49444C4500000000B7
:1023E00008000000FFF7FEBFFFF7FEBFFFF7FEBFCC
:1023F000FFF7FEBFFFF7FEBFFFF7FEBFFFF7FEBF11
:10240000FFF7FEBFFFF7FEBFFFF7FEBFFFF7FEBF00
:10241000FFF7FEBFFFF7FEBFFFF7FEBFFFF7FEBFF0
:10242000FFF7FEBFFFF7FEBFFFF7FEBFFFF7FEBFE0
:10243000FFF7FEBFFFF7FEBFFFF7FEBFFFF7FEBFD0
:10244000FFF7FEBFFFF7FEBFFFF7FEBFFFF7FEBFC0
:10245000FFF7FEBFFFF7FEBFFFF7FEBFFFF7FEBFB0
:10246000FFF7FEBFFFF7FEBFFFF7FEBFFFF7FEBFA0
:10247000FFF7FEBFFFF7FEBFFFF7FEBFFFF7FEBF90
:10248000FFF7FEBFFFF7FEBFFFF7FEBFFFF7FEBF80
:10249000FFF7FEBFFFF7FEBFFFF7FEBFFFF7FEBF70
:1024A000FFF7FEBFFFF7FEBFFFF7FEBFFFF7FEBF60
:1024B000FFF7FEBFFFF7FEBFFFF7FEBFFFF7FEBF50
:1024C000FFF7FEBFFFF7FEBFFFF7FEBFFFF7FEBF40
:1024D000FFF7FEBFFFF7FEBFFFF7FEBFFFF7FEBF30
:1024E000FFF7FEBFFFF7FEBFFFF7FEBFFFF7FEBF20
:1024F000FFF7FEBFFFF7FEBFFFF7FEBFFFF7FEBF10
:10250000FFF7FEBFFFF7FEBFFFF7FEBFFFF7FEBFFF
:0C251000FFF7FEBFFFF7FEBFFFF7FEBFA6
:04000005080023CDFF
:00000001FF
